:020000040800F2
:1000000008070020790200083B160008B513000815
:10001000391600086F040008D11B0008000000001A
:100020000000000000000000000000003F16000873
:1000300071040008000000003D1600084116000889
:10004000930200089302000893020008930200083C
:10005000930200089302000893020008930200082C
:10006000930200089302000893020008930200081C
:10007000930200089302000893020008930200080C
:100080009302000800000000930200089302000899
:1000900093020008930200089302000893020008EC
:1000A00093020008930200089302000893020008DC
:1000B00093020008930200089302000893020008CC
:1000C00093020008930200089302000893020008BC
:1000D00093020008930200089302000893020008AC
:1000E000930200089302000893020008930200089C
:1000F0009302000893020008930200080000000029
:1001000000000000930200080000000093020008B5
:100110009302000800000000930200089302000808
:10012000930200089302000893020008930200085B
:100130009302000800000000000000009302000885
:100140009302000893020008000000000000000075
:10015000000000000000000000000000000000009F
:1001600000000000000000000000000093020008F2
:1001700093020008000000000000000000000000E2
:1001800000000000930200080000000000000000D2
:10019000000000000000000000000000000000005F
:1001A0000000000000000000930200089302000815
:1001B0009302000893020008930200080000000068
:1001C0000000000093020008000000000000000092
:1001D000930200089302000800F002F800F03CF8D7
:1001E0000AA090E8000C82448344AAF10107DA4592
:1001F00001D100F031F8AFF2090EBAE80F0013F0A8
:10020000010F18BFFB1A43F001031847541A0000EE
:10021000741A0000103A24BF78C878C1FAD852077F
:1002200024BF30C830C144BF04680C607047000070
:100230000023002400250026103A28BF78C1FBD8EF
:10024000520728BF30C148BF0B6070471FB501F08F
:10025000E1FC1FBD10B510BD00F0CFF81146FFF74F
:10026000F5FF01F0C6FC00F0EDF803B4FFF7F2FF74
:1002700003BC00F0F5F80000094880470948004732
:10028000FEE7FEE7FEE7FEE7FEE7FEE7FEE7FEE746
:10029000FEE7FEE704480549054A064B70470000A3
:1002A000AD160008D9010008080100200807002049
:1002B000080300200803002053EA020C00F06980C4
:1002C0002DE9F04B4FF00006002B1FBFB3FA83F56A
:1002D00003FA05F424FA05F65E4012BF1643B2FA9B
:1002E00082F502FA05F4C5F120051EBF22FA05FCCD
:1002F00044EA0C04203556EA044C4FEA144418BF73
:10030000641C4FF000084FF00009904271EB030CA1
:1003100039D3002919BFB1FA81F701FA07F6B0FA0B
:1003200080F700FA07F6C7F120071EBF20FA07FC86
:1003300046EA0C062037B6FBF4FCA7EB0507103F96
:1003400007F01F0BCBF120060CFA0BFB2CFA06F67C
:1003500044BFB3460026202FA4BF5E464FF0000BDB
:100360005BEA060C08BF4FF0010B19EB0B09ABFB66
:10037000027C48EB0608C01B06FB02CC0BFB03CC3F
:1003800071EB0C01C1E70B46024641464846BDE809
:10039000F08B13B54FF000004FF00001AFF3008079
:1003A000BDE81C4070474FF0000200B5134694466C
:1003B0009646203922BFA0E80C50A0E80C50B1F1BD
:1003C0002001BFF4F7AF090728BFA0E80C5048BFD1
:1003D0000CC05DF804EB890028BF40F8042B08BF6F
:1003E000704748BF20F8022B11F0804F18BF00F86B
:1003F000012B7047704770477047754600F02CF826
:10040000AE4605006946534620F00700854618B001
:1004100020B5FFF73FFFBDE820404FF000064FF04A
:1004200000074FF000084FF0000B21F00701AC4629
:10043000ACE8C009ACE8C009ACE8C009ACE8C00948
:100440008D46704710B50446AFF300802046BDE8E6
:100450001040FFF70ABF000000487047A8000020C6
:1004600001491820ABBEFEE7260002007047FEE7F8
:10047000704772B6FEE700002DE9F04FDFF82092DA
:10048000002301260324A9F1040B85B00F2709F1ED
:10049000040AABF1040EFAE006FA03F52A407CD018
:1004A00091F804C00CF0030CBCF1010F02D0BCF1B8
:1004B000020F26D1D0F808C0CDF800C04FEA430C97
:1004C00004FA0CF8CDF810C0DDF800C02CEA080CD6
:1004D000CDF800C0D1F80C80DDF810C008FA0CF897
:1004E000DDF800C048EA0C08C0F80880D0F804C065
:1004F0002CEA050C0D79C5F300159D4045EA0C0565
:1005000045600D79ED43AD070ED0C5684FEA43084D
:1005100004FA08FC25EA0C05D1F808C00CFA08FC1E
:100520004CEA050CC0F80CC00D7905F00305022D4E
:1005300016D1DD0800EB850CCDF808C0DCF8208072
:100540005D074FEAD56C07FA0CF528EA05080D6936
:1005500005FA0CF5DDF808C045EA0805CCF820508E
:1005600005684FEA430CCDF808C004FA0CFC25EAF4
:100570000C0591F804C00CF00308DDF808C008FA77
:100580000CF848EA0508C0F800804D6815F4403FB3
:100590007CD0444DD5F860C000E077E04CF0010C11
:1005A000C5F860C02D6E23F0030C05F00105009521
:1005B0003D4D65440295AD684FEA837C4FEA1C7857
:1005C00007FA08FC25EA0C05B0F1904F06D0DFF8D9
:1005D000DCC0604505D14FF0010C20E04FF0000C6D
:1005E0001DE0DFF8CCC0604502D14FF0020C16E0F0
:1005F000DFF8C0C0604502D14FF0030C0FE0DFF818
:10060000B8C0604502D14FF0040C08E0DFF8ACC080
:10061000604502D14FF0050C01E04FF0060C0CFADA
:1006200008FC4CEA050C029DC5F808C0D9F800503A
:10063000CC46D1F8048095435FEAC82800D515431D
:10064000CCF80050DAF80050D446D1F80480954335
:100650005FEA882800D51543CCF80050DBF800503D
:10066000DC46D1F8048095435FEA883800D515430D
:10067000CCF80050DEF80050F446D1F804809543E1
:100680005FEAC83800D51543CCF800505B1C0A68F7
:1006900032FA03F57FF400AF05B0BDE8F08F00003B
:1006A000080401400010024000000140000400481E
:1006B00000080048000C00480010004800140048E2
:1006C0000069084000D0012070470AB1816170477D
:1006D0008162704701488068704700000400002074
:1006E000024881684268114481607047040000201C
:1006F00010B50024032000F065F8002000F008F891
:1007000008B1012401E000F025F8204610BD0000EA
:1007100070B50E4E05460024706898B14FF47A719A
:10072000B1FBF0F00A490968B1FBF0F000F052FDAE
:1007300040B9102D06D200222946501E00F022F8A2
:10074000356000E00124204670BD00000400002058
:10075000100000200A4882B0016E41F001010166DC
:10076000016E01F001010091816D41F080518165C0
:10077000806D00F08050009002B000F093B800004F
:1007800000100240F0B40E4B1B680C46C3F302236A
:10079000C3F10705042D00D90425191D072901D22D
:1007A000002300E0DB1E012606FA05F1491E214068
:1007B00099409E40761E16403143F0BC01F009BAC4
:1007C0000CED00E0064900F0070208684FF6FF0351
:1007D000184040EA0220034A1043086070470000B6
:1007E0000CED00E00000FA052B492C4B0A68322181
:1007F0004A432B4940B1B0F5007F086829D020F466
:10080000C06040F480602CE00868C0F341200228FA
:1008100004D051F8800F20F4807022E0D1F88000DD
:1008200020F48070C1F88000086820F4C06040F4B3
:1008300000700860B2FBF3F0401C00E0401E4A6903
:10084000520501D50028F9D1486940050AD5032091
:100850007047C0F34120022806D051F8800F40F4C1
:100860008070086000207047D1F8800040F48070EC
:10087000C1F88000086820F4C06040F4007008608F
:10088000B2FBF3F0401C00E0401E4A695205DBD584
:100890000028F9D1D8E700001000002040420F00E6
:1008A000007000400248816841F4804181607047D7
:1008B000007000402DE9F8430446006800269D4D75
:1008C00000035ED5A86D0027C00008D4A86D40F0D5
:1008D0008050A865A86D012700F080500090DFF8D7
:1008E0005892D9F8001041F48071C9F80010FFF750
:1008F000F1FE804606E000BFFFF7ECFEA0EB08002B
:1009000002282BD8D9F80000C005F5D5D5F89000FD
:1009100010F4407014D0216C814211D0D5F89000B1
:10092000D5F8901020F4407041F48031C5F8901053
:10093000D5F8901021F48031C5F89010C5F89000DA
:10094000C00711D0FFF7C6FE804641F2883907E0A4
:10095000FFF7C0FEA0EB0801494501D903260BE0D3
:10096000D5F890008007F3D5D5F89000216C20F4DD
:1009700040700843C5F890001FB1A86D20F080506A
:10098000A8652078C00707D0D5F88800616820F0F6
:1009900003000843C5F888002078800707D5D5F8FC
:1009A0008800A16820F00C000843C5F88800207872
:1009B000400707D5D5F88800E16820F030000843EB
:1009C000C5F888002078000707D5D5F88800216988
:1009D00020F0C0000843C5F888002078800607D5BD
:1009E000D5F88800616920F440600843C5F88800A4
:1009F0002078400607D5D5F88800A16920F440503A
:100A00000843C5F888002078000607D5D5F8880087
:100A1000E16920F440400843C5F888002088C005FB
:100A200007D5D5F88800216A20F440300843C5F87E
:100A300088002088800507D5D5F88800616A20F4F1
:100A400040200843C5F88800208840050FD5D5F818
:100A50008800A16A20F440100843C5F88800A06A05
:100A6000B0F5801F03D1E86840F48010E86020886A
:100A700000050FD5D5F88800E16A20F4400008434E
:100A8000C5F88800E06AB0F5800F03D1E86840F44B
:100A90008010E8602088C0040FD5D5F88800216B4D
:100AA00020F040700843C5F88800206BB0F1807FCB
:100AB00003D1E86840F48010E86020884FF00061BE
:100AC00080040ED5D5F88800626B20F0406010439A
:100AD000C5F88800606B884203D1E86840F4801054
:100AE000E860208840040ED5D5F88800A26B20F07D
:100AF00040601043C5F88800A06B884203D1E868C5
:100B000040F48010E860208800040FD5D5F88800F4
:100B1000E16B20F040500843C5F88800E06BB0F16D
:100B2000805F03D1E86840F48030E8603046BDE87B
:100B3000F883000000100240007000402DE9F047EB
:100B40000E4605004FF0000725D0DFF8AC81D8F83D
:100B5000000000F00F00B0420CD2D8F8001021F0D5
:100B60000F013143C8F80010D8F8000000F00F0062
:100B7000B04210D12968614CC80741F2883A5AD076
:100B80006868DFF87C91032808D0022820682DD0FF
:100B9000400500282CDB0120BDE8F087206880019B
:100BA000F9D5E06800F00302E068C0F30310401CD0
:100BB000032A19D0534A00BFB2FBF0F0E268C2F337
:100BC00006225043E268C2F34162521C5200B0FB5D
:100BD000F2F0484517D9A06810F0F00F0CD0880744
:100BE00011D5A86840B10EE0474AE5E78003D0E799
:100BF00000F0B6F8484506D9A06820F0F00040F0B3
:100C00008000A0608027A068696820F00300084386
:100C1000A060FFF75FFD814606E000BFFFF75AFDC9
:100C2000A0EB090151453AD8A068696800F00C00B2
:100C3000B0EB810FF2D12868810714D5400703D5A6
:100C4000A06840F4E060A0602878000705D5A0689F
:100C500020F4605040F4E060A060A068A96820F033
:100C6000F000084304E0802F03D1A06820F0F000DA
:100C7000A060D8F80010404601F00F01B14216D92B
:100C8000016821F00F0131430160FFF723FD0746A2
:100C900007E000BFFFF71EFDC11B514501D903202E
:100CA0007AE7D8F8000000F00F00B042F2D12878BF
:100CB000400705D5A068E96820F4E0600843A0601B
:100CC0002878000706D5A068296920F4605040EA1A
:100CD000C100A06000F044F8A1680C4AC1F3031100
:100CE000515C01F01F01C8400949086009480068CB
:100CF000BDE8F047FFF70CBD0020024000100240A5
:100D000000B4C4040024F40000366E01461C000840
:100D1000100000200400002005480649006889688A
:100D2000054AC1F30221515C01F01F01C840704720
:100D30001000002000100240561C0008054806491B
:100D400000688968054AC1F3C221515C01F01F01A6
:100D5000C84070471000002000100240561C0008D8
:100D6000184910B58868C0F381021748012A0BD0D2
:100D70008A68164BC2F38102022A06D08A68C2F33F
:100D80008102032A03D0002010BD184610BDCA6896
:100D900002F00304CA68C2F30312521C032C02D0EF
:100DA000B0FBF2F001E0B3FBF2F0CA68C968C2F32D
:100DB00006225043C1F34161491C4900B0FBF1F0E8
:100DC00010BD0000001002400024F40000366E0147
:100DD0002DE9F84304007AD02078F84DC00747D0B9
:100DE000A868E96800F00C0001F003010C2802D0AB
:100DF000082817D001E0032914D06068B0F5803FBF
:100E000017D0B0F5A02F286817D020F480302860C4
:100E1000286820F4802028606068E0B1FFF75AFC61
:100E2000064614E02868800322D560680028D2D0E6
:100E30001EE0286840F48030EDE740F48020286010
:100E4000F7E700BFFFF746FC801B642870D82868CE
:100E50008003F7D50CE0FFF73DFC064605E000BF38
:100E6000FFF738FC801B6428F0D828688003F7D48B
:100E7000207880074CD5A868E96800F00C0001F0E4
:100E800003010C2802D004280DD001E002290AD069
:100E9000E068002828682BD040F480702860FFF7B5
:100EA00019FC064619E02868400502D5E0680028CC
:100EB00091D06868217C20F0FE4040EA01606860C3
:100EC000BF480068FFF724FC002800D120E072E151
:100ED000FFF700FC801B0228B8D828684005F7D52A
:100EE0006868217C20F0FE4040EA016068600FE005
:100EF00020F480702860FFF7EDFB064605E000BF98
:100F0000FFF7E8FB801B0228A0D828684005F7D42B
:100F10002078000729D560690028D5F8940013D0FF
:100F200040F00100C5F89400FFF7D4FB064606E048
:100F300090E000BFFFF7CEFB801B022886D8D5F8D3
:100F400094008007F6D510E020F00100C5F8940069
:100F5000FFF7C0FB064604E0FFF7BCFB801B02283E
:100F600078D8D5F894008007F6D42078400761D56A
:100F7000A86D0026C00008D4A86D40F08050A86578
:100F8000A86D012600F0805000908E480168C905C8
:100F900011D40168804641F480710160FFF79AFB2B
:100FA000074604E0FFF796FBC01B022852D8D8F88A
:100FB0000000C005F6D5A068012815D00528D5F891
:100FC000900016D020F00100C5F89000D5F89000F0
:100FD00020F00400C5F89000A06841F28838B8B14C
:100FE000FFF778FB07460EE0D5F8900040F00100CF
:100FF000F0E740F00400C5F89000F5E7FFF76AFB62
:10100000C11B414526D8D5F890008007F6D50CE0E5
:10101000FFF760FB074604E0FFF75CFBC11B41459F
:1010200018D8D5F890008007F6D41EB1A86D20F02E
:101030008050A8652078800629D5A0690028D5F8B9
:10104000980013D040F00100C5F89800FFF742FB6C
:10105000064606E075E000BFFFF73CFB801B022858
:101060006FD8D5F898008007F6D510E020F0010081
:10107000C5F89800FFF72EFB064604E0FFF72AFBB1
:10108000801B02285DD8D5F898008007F6D4E06967
:10109000F0B3A968C1F3810103295DD00228286853
:1010A00020F08070286003D0FFF714FB04464BE06B
:1010B000FFF710FB064604E0FFF70CFB801B02283D
:1010C0003FD828688001F7D4F4E908016FF00F02D7
:1010D00002EB01110843218A5204490802EB4151F5
:1010E000A26841EA02210843217D4FF07E4249086F
:1010F00002EB41610843217B40EAC160E968324A62
:1011000011400843E860286840F08070286000E0E3
:101110005EE0E86840F08070E860FFF7DBFA0446C4
:1011200005E000BFFFF7D6FA001B022809D828689F
:101130008001F7D54CE000BFFFF7CCFA001B022876
:1011400002D90320BDE8F88328688001F4D4E86858
:101150001E490840E8603BE00128F3D0E868226AB5
:1011600000F00301914226D1616A00F0F00209010A
:10117000103991421FD1A26A00F4FE41B1EB022F57
:1011800019D194F82C2000F07841B1EBC26F12D144
:10119000218E00F4C00249084905A1F500119142D1
:1011A00009D194F8341000F0C06049084906A1F153
:1011B000007181420CD00120C4E700000010024001
:1011C00004000020007000400C809F01FCFFEEFE38
:1011D0000020B7E710B5401EB0F1807F01D3012099
:1011E00010BD4FF0E02460610F21601700F0F1FCAA
:1011F0000020A06107202061002010BD90F884101D
:10120000012918D0012180F884102421C0F8881009
:1012100001680A680B6823F001030B6022F000519B
:1012200000224266036819602021C0F8881080F807
:101230008420104670470220704770B5044690F82D
:10124000840001281DD0012084F884002420C4F8E3
:10125000880020680568026822F0010202602068A8
:10126000826822F060620A438260204600F026FA1B
:10127000206805602020C4F88800002084F88400DD
:1012800070BD022070BD70B5044690F8840001283E
:101290001DD0012084F884002420C4F88800206830
:1012A0000568026822F0010202602068826822F06C
:1012B00060420A438260204600F000FA2068056020
:1012C0002020C4F88800002084F8840070BD02202B
:1012D00070BD10B5040003D0D4F8880010B107E049
:1012E000012010BD002084F88400204600F026F87C
:1012F0002420C4F888002068016821F00101016001
:10130000A06A10B1204600F0FBF9204600F0DCFA9C
:101310000128E6D02068416821F4904141602068AE
:10132000816821F02A0181602068016841F0010193
:1013300001602046BDE8104000F046BA10B598B0F4
:101340000446142111A8FFF72EF844216846FFF740
:101350002AF816492068884226D1002420200594C6
:1013600000906846FFF7A6FA08B1FFF782F8104828
:10137000C16D41F00101C165C16D01F0010116911E
:10138000C16C41F00101C164C06C11AA00F0010000
:1013900016900C20022182E81300CDE9144011A917
:1013A0004FF09040FFF768F818B010BD0080004083
:1013B00000100240FEE7000070B50A4C4FF4804573
:1013C000660104E029462046FFF77AF938B1314634
:1013D0002046FFF775F90128F4D0002070BD0120E8
:1013E00070BD00000004004870B5094C4FF4804502
:1013F000660105E029462046FFF762F9012806D07C
:1014000031462046FFF75CF90128F3D0002070BD7B
:10141000000400482DE9F0470024104E25464FF403
:1014200080494FF4004739463046FFF749F9002814
:10143000F9D060064FEA106849463046FFF740F998
:1014400040EA080439463046FFF73AF90128F9D056
:101450006D1C082DE7DB2046BDE8F087000400483E
:10146000F0B585B014216846FEF79DFF4FF4804526
:101470001120CDE900500020104C02906946204612
:10148000FEF7FAFF002229462046FFF71EF9660103
:1014900031462046FFF714F90028F9D02746344694
:1014A00021463846FFF70CF90128F9D001222946D8
:1014B0003846FFF70AF905B0F0BD00000004004807
:1014C00070B50D460646FFF777FF00281CD0FFF7E2
:1014D000A1FF0E4908700E4908701821B1EB500F9A
:1014E00012D1FFF7BDFF002405E000BFFFF792FF18
:1014F0003055641CE4B2AC42F8D3FFF7B1FF00BF33
:10150000FFF772FF0028FBD070BD00000000002034
:10151000010000202DE9F04186B014216846FEF755
:1015200042FF2948C16C41F00401C164C16C01F063
:1015300004010591C16C41F02001C164C16C01F04E
:1015400020010591C16C41F00101C164C16C01F041
:1015500001010591C16C41F00201C164C06C4FF002
:10156000904700F002000590002220213846FFF746
:10157000ACF8DFF858804FF4404600223146404630
:10158000FFF7A3F84FF4005000904FF488100024A8
:10159000CDE9010469460E48FEF76EFF2020009059
:1015A0000125CDE90154694638460394FEF764FFEE
:1015B000CDE90065CDE9025469464046FEF75CFF7F
:1015C00006B0BDE8F08100000010024000040048B1
:1015D00000080048174810B5154901604FF4E13183
:1015E0004160002181600C22C160C0E90412816168
:1015F000016241628162FFF76CFE08B1FEF739FFBC
:1016000000210C48FFF73FFE08B1FEF732FF002132
:101610000848FFF712FE08B1FEF72BFF0548FFF759
:10162000EDFD002803D0BDE81040FEF722BF10BD3D
:101630000080004014000020FEE7FEE7704770477E
:10164000FFF74EB800B593B038216846FEF7ABFE01
:1016500014210EA8FEF7A7FE0020FFF7C5F8022010
:10166000C1010391402104910421CDE908010090BA
:101670005521CDE90A1007900C900D906846FFF7B0
:10168000A7FB08B172B6FEE70F200E9003200F9063
:10169000002010901190129004210EA8FFF74EFA2E
:1016A000002801D072B6FEE713B000BD0248016801
:1016B00041F470010160704788ED00E030B5416E83
:1016C000B9B1026891689268C1F342610B4B520F45
:1016D0009C5CE50003F10804A25CB5FBF2F2A0F803
:1016E0006A205A5C615CD200B2FBF1F1A0F868108C
:1016F00030BD0121A0F86A10F8E70000361C000890
:1017000090F82810090706D501684A68836B22F40F
:1017100000421A434A6090F82810C90706D00168B1
:101720004A68C36A22F400321A434A6090F82810CB
:10173000890706D501684A68036B22F480321A4390
:101740004A6090F82810490706D501684A68436B3B
:1017500022F480221A434A6090F82810C90606D560
:1017600001688A68C36B22F480521A438A6090F839
:101770002810890606D501688A68036C22F4005295
:101780001A438A6090F82810490611D501684A6802
:10179000436C22F480121A434A60416CB1F5801FF9
:1017A00006D101684A68836C22F4C0021A434A6079
:1017B00090F82810090606D501684A68C06C22F422
:1017C000002202434A6070472DE9F8430026044690
:1017D000C0F89060FEF77EFF8046206800684FF0FA
:1017E000200500076FF07E4713D5434600222904E9
:1017F0002046009700F0A2F958B1216851E8000F87
:1018000020F0800041E80002002AF6D1C4F8885098
:1018100021E020680068400722D5434600224FF4AB
:1018200080012046009700F089F9C8B1216851E88D
:10183000000F20F4907041E80002002AF6D12068E1
:10184000083050E8001F21F0010140E80012002A92
:10185000F5D1C4F88C5084F884600320BDE8F88387
:10186000C4F88850C4F88C5044F86C6F66602676D3
:101870000020F3E710B5026852E8001F21F49071D0
:1018800042E80013002BF6D10E4B0268083252E8F2
:10189000001F194042E80014002CF6D1C16E012946
:1018A00008D1016851E8002F22F0100241E800231E
:1018B000002BF6D12021C0F88C100021C1664167B1
:1018C00010BD0000FEFFFFEF2DE9F0410446016866
:1018D00080682269E3691043626900251A43104356
:1018E000DFF82CC20A688B4B1A4002430A6020685A
:1018F0004168E26821F44051114341602168A069C8
:10190000614501D0226A10438A68834B1A40024322
:101910008A602068C16A626A21F00F011143C162C6
:101920007E4923687E488B420DD1D0F8880010F0A4
:10193000030006D0012855D0022842D003283FD109
:1019400052E001203DE077498B420BD1D0F888006E
:1019500010F00C0035D0042833D0082840D00C28D3
:101960002ED141E070498B420BD1D0F8880010F0A5
:10197000300026D0102835D0202831D030281FD173
:1019800032E06A498B420BD1D0F8880010F0C000D9
:1019900017D0402826D0802822D0C02810D123E09C
:1019A00063450DD1D0F8880010F4406009D0B0F53F
:1019B000806F17D0B0F5006F12D0B0F5406F13D024
:1019C00010205B495B4F00264FF4004263453BD13A
:1019D00060B1022813D004280BD0082872D10DE082
:1019E0000220EEE70420ECE70820EAE7FFF794F98D
:1019F00001E0FFF7B5F9010001D17CE01146606A12
:101A000037F810206768B1FBF2F007EB4703834219
:101A100070D8B0EB073F6DD8002308461946FEF793
:101A20004BFC090241EA106102027808101871416A
:101A30003A460023FEF740FC3F4AA0F54071914230
:101A400058D82168C86056E0E3694FF6EF789342B2
:101A50002CD109284ED2DFE800F00508114D0D4DBC
:101A60004D4D1000FFF758F901E0FFF767F901004D
:101A700004D140E0FFF774F9F9E71146606A37F8DE
:101A80001000B1FBF0F04100606801EB5001B1FBC8
:101A9000F0F0A0F1100141452CD84FF6F071014053
:101AA000C0F3420001432068C16024E0092821D22C
:101AB000DFE800F0050912200E2020201100FFF7BA
:101AC0002BF902E016E0FFF739F9010004D112E02A
:101AD000FFF746F9F9E71146606A37F81000B1FBE5
:101AE000F0F1606801EB5001B1FBF0F0A0F11001E2
:101AF00041450AD901250120A4F86A0024F8680F9D
:101B00002846E6602661BDE8F08180B299E70000D2
:101B100000800040F369FFCFFFF4FF11003801405F
:101B2000001002400044004000480040004C0040CB
:101B30000024F4001E1C0008FFFC0F002DE9F047F4
:101B4000994617460D4604464FF00008089E33E0BC
:101B5000701C31D0FEF7BEFDA0EB0900B04218D8D2
:101B6000BEB120680168490726D5802D24D0402DBC
:101B700022D0C169C94309070DD408250562204652
:101B8000FFF778FEC4F8905084F884800120BDE807
:101B9000F0870320FBE7C069C04300050CD421682F
:101BA0004FF4006008622046FFF764FE2020C4F86E
:101BB000900084F88480ECE72068C06935EA000072
:101BC00004D00020B842C3D00020E0E70120F9E7AC
:101BD000FEE70907090E002804DB00F1E02080F889
:101BE0000014704700F00F0000F1E02080F8141D91
:101BF000704708B5FEF77CFDFFF724FDFFF78AFC70
:101C0000FFF7E8FC00208DF8000001216846FFF78F
:101C100057FCFAE74FF04070E1EE100A7047010000
:101C200002000400060008000A000C00100020005A
:101C300040008000000101010103070100000804C9
:101C40000204080101010000000000000000010280
:101C50000304060708090000000001020304000055
:101C6000801C00080000002014000000140200087E
:101C7000941C000814000020F40600003002000844
:101C80000000000010000000010000000000000043
:041C90000024F40038
:04000005080001D915
:00000001FF
