:020000040800F2
:1000000080070020790200087F2300088D21000866
:100010007D23000891050008152900080000000054
:100020000000000000000000000000008323000822
:1000300093050008000000008123000885230008C4
:10004000930200089302000893020008930200083C
:10005000930200089302000893020008930200082C
:10006000930200089302000893020008930200081C
:10007000930200089302000893020008930200080C
:1000800093020008000000006904000893020008C1
:1000900093020008930200089302000893020008EC
:1000A00093020008930200089302000893020008DC
:1000B00093020008930200089302000893020008CC
:1000C00093020008930200089302000893020008BC
:1000D00093020008930200089302000893020008AC
:1000E000930200089302000893020008930200089C
:1000F0009302000893020008930200080000000029
:1001000000000000930200080000000093020008B5
:100110009302000800000000930200089302000808
:10012000930200089302000893020008930200085B
:100130009302000800000000000000009302000885
:100140009302000893020008000000000000000075
:10015000000000000000000000000000000000009F
:1001600000000000000000000000000093020008F2
:1001700093020008000000000000000000000000E2
:1001800000000000930200080000000000000000D2
:10019000000000000000000000000000000000005F
:1001A0000000000000000000930200089302000815
:1001B0009302000893020008930200080000000068
:1001C0000000000093020008000000000000000092
:1001D000930200089302000800F002F800F03CF8D7
:1001E0000AA090E8000C82448344AAF10107DA4592
:1001F00001D100F031F8AFF2090EBAE80F0013F0A8
:10020000010F18BFFB1A43F001031847242A00000E
:10021000442A0000103A24BF78C878C1FAD852079F
:1002200024BF30C830C144BF04680C607047000070
:100230000023002400250026103A28BF78C1FBD8EF
:10024000520728BF30C148BF0B6070471FB502F08E
:10025000C9FC1FBD10B510BD00F0CFF81146FFF767
:10026000F5FF02F069FB00F0EDF803B4FFF7F2FFD1
:1002700003BC00F0F1F80000094880470948004736
:10028000FEE7FEE7FEE7FEE7FEE7FEE7FEE7FEE746
:10029000FEE7FEE704480549054A064B70470000A3
:1002A000F1230008D9010008800100208007002008
:1002B000800300208003002053EA020C00F06980D4
:1002C0002DE9F04B4FF00006002B1FBFB3FA83F56A
:1002D00003FA05F424FA05F65E4012BF1643B2FA9B
:1002E00082F502FA05F4C5F120051EBF22FA05FCCD
:1002F00044EA0C04203556EA044C4FEA144418BF73
:10030000641C4FF000084FF00009904271EB030CA1
:1003100039D3002919BFB1FA81F701FA07F6B0FA0B
:1003200080F700FA07F6C7F120071EBF20FA07FC86
:1003300046EA0C062037B6FBF4FCA7EB0507103F96
:1003400007F01F0BCBF120060CFA0BFB2CFA06F67C
:1003500044BFB3460026202FA4BF5E464FF0000BDB
:100360005BEA060C08BF4FF0010B19EB0B09ABFB66
:10037000027C48EB0608C01B06FB02CC0BFB03CC3F
:1003800071EB0C01C1E70B46024641464846BDE809
:10039000F08B13B54FF000004FF00001AFF3008079
:1003A000BDE81C4070474FF0000200B5134694466C
:1003B0009646203922BFA0E80C50A0E80C50B1F1BD
:1003C0002001BFF4F7AF090728BFA0E80C5048BFD1
:1003D0000CC05DF804EB890028BF40F8042B08BF6F
:1003E000704748BF20F8022B11F0804F18BF00F86B
:1003F000012B7047704770477047754600F028F82A
:10040000AE4605006946534620F00700854618B001
:1004100020B5FFF73FFFBDE820404FF000064FF04A
:1004200000074FF000084FF0000B21F00701AC4629
:10043000ACE8C009ACE8C009ACE8C009ACE8C00948
:100440008D4670470446AFF300802046FFF70DFF4E
:10045000004870472001002001491820ABBEFEE78C
:100460002600020070470000014800F065BB000054
:100470002000002070B50446006881688268C1F3DE
:10048000400112F0010F28D039BB816801F00D0145
:10049000012914D18168124A1140891C81602168A8
:1004A0000320086000F0F4FF054612E000F0F0FFC2
:1004B000401B02280DD920688068C00709D0E06D74
:1004C00040F01000E065206E40F001002066012041
:1004D00070BD20688068C007E8D1002070BD0000B2
:1004E000C0FFFF7FF8B504460020009020688168B7
:1004F00011F0010F41D18168214A11422ED181684A
:10050000D5432940491C81601E48806800F0E07096
:1005100000020DD51C481D490068B0FBF1F0401CDD
:1005200000EB4000800000E0401E00900028FBD15E
:1005300000F0AEFF06461BE0816811F0010F03D109
:1005400081682940491C816000F0A2FF801B0228BD
:100550000ED920680068C043C00709D0E06D40F0A4
:100560001000E065206E40F0010020660120F8BD1B
:1005700020680168C943C907DED10020F8BD00002A
:100580003F000080000300501C000020400D0300CD
:10059000FEE7704772B6FEE7F8B5002604460096FF
:1005A00090F858000D4601280BD0012084F858001F
:1005B0002046FFF75FFF0100E06D04D040F010001F
:1005C0002AE00220F8BD20F4885040F00200E065E7
:1005D00020688268134B1A4005F080431A4342F0AA
:1005E00000428260104A20680EE0009B5B1C009372
:1005F000934209D3E06D20F0020040F01000E06566
:1006000084F858600120F8BD8368DB0FEDD1E06D00
:1006100020F0020040F00100E06584F858600846D0
:10062000F8BD0000C0FFFF3F02DE040070477047C6
:1006300070477047704700002DE9F047044690F876
:1006400058009CB00E464FF00009012822D001202E
:1006500084F8580000251795189520684FF0A04899
:10066000404519D1274F0097384601F09EFD82463C
:10067000206801F09AFD50EA0A0115D0E06D40F0C3
:100680002000E0654FF0010984F8585048461CB03E
:10069000BDE8F0870220FAE7E06D40F02000E06559
:1006A00084F858500120F2E71748316840F61F726D
:1006B0000029816821F4604116D094F8383041EA6D
:1006C0004331736819438160D8F80810BB6801F0A2
:1006D000010103F001031943D6D1B368316819430E
:1006E0008368934319430BE08160D8F80810BB6816
:1006F00001F0010103F001031943C5D18168914361
:100700008160C1E700010050000300502DE9F84F5F
:1007100000270446009790F85800DFF8DC930D4658
:10072000B846012811D0012684F85860206801F0ED
:1007300038FD60B1E06D40F02000E0655FF001073A
:1007400084F858803846BDE8F88F0220FBE7D5E9E9
:1007500000210C23206803EA91131844036B01F075
:100760001F014FF01F0C0CFA01FCC2F3846223EA54
:100770000C038A4013430363206801F012FD824694
:10078000206801F00AFD5AEA00003CD1AA682968F5
:100790002068B2F1004F37D001F013FD20684169A5
:1007A00021F00041416120686969C268C2F3C10259
:1007B000520091402A69042A31D000EB82002B6854
:1007C000026EDFF838C303F0F84302EA0C020B4371
:1007D0001A4342F00041016620682A69A96900EBCA
:1007E0008200026E22F080720A430266297F22682C
:1007F0002869012910D0002102EB8000026E22F04E
:1008000000720A4302667DE0002201F0DAFC2068F3
:10081000416941F00041C5E74FF00071ECE700216C
:1008200001F0B5FC400320684FF0000172D001F0E8
:10083000AEFC90FAA0F0B0FA80F1286842036ED0C6
:1008400090FAA0F0B0FA80F0814204D10022114663
:10085000206801F0C5FC0121206801F098FC4003EC
:1008600020684FF001015DD001F091FC90FAA0F0FA
:10087000B0FA80F12868420359D090FAA0F0B0FA9B
:1008800080F0814204D100220121206801F0A8FCFF
:100890000221206801F07BFC400320684FF0020138
:1008A00048D001F074FC90FAA0F0B0FA80F128680A
:1008B000420344D090FAA0F0B0FA80F0814204D113
:1008C00000220221206801F08BFC0321206801F046
:1008D0005EFC400320684FF0030133D001F057FC69
:1008E00090FAA0F0B0FA80F1286842032FD090FA75
:1008F000A0F0B0FA80F0814204D1002203212068E8
:1009000001F06EFC2068816811F0010F22D0ABE08D
:1009100000E004E001F03BFCC0F384618DE7C0F32C
:10092000846091E701F033FCC0F38461A2E7C0F377
:100930008460A6E701F02BFCC0F38461B7E7C0F345
:100940008460BBE701F023FCC0F38461CCE7C0F313
:100950008460D0E72A7B296850F8B03FC1F3120CBD
:1009600023EA0C0302F0180C654A22FA0CF20A4042
:1009700013430360E968494576D1286841031BD0D9
:1009800090FAA0F1B1FA81F1491C01F01F01092987
:100990004FEA403131D8002911D090FAA0F1B1FAD4
:1009A00081F100BF01F1010101F01F0106FA01F61A
:1009B00008D1C0F3846109E0C0F38461E4E7C0F3C7
:1009C0008461EFE790FAA0F1B1FA81F101F1010140
:1009D00001F01F0146EA816102D1C0F3846003E0A7
:1009E00090FAA0F0B0FA80F000F1010000F01F00D2
:1009F00000EB400041EA005132E000290ED090FAAD
:100A0000A0F1B1FA81F100BF01F1010101F01F0174
:100A100006FA01F605D1C0F3846106E0C0F38461F3
:100A2000F2E790FAA0F1B1FA81F101F1010101F0D0
:100A30001F0146EA816102D1C0F3846003E090FAAD
:100A4000A0F0B0FA80F000F1010000F01F002D4A84
:100A500000EB400002EB005041EA000141F0007160
:100A6000AA68206801F0ADFB27482A6802423FF4DB
:100A700067AE26488168264B01F0E0719A4202D0A9
:100A8000244B9A421CD10B021AD42268B2F1A04F17
:100A90007FF456AE826841F4000122F0E0720A430E
:100AA00082601D481D490068B0FBF1F0401C00EB5E
:100AB0004000800000E0401E00900028FBD13FE68F
:100AC000174D184BAA4207D1CD0105D422689A428E
:100AD000F5D041F0807109E0134DAA42EFD14A02EE
:100AE000EDD422689A42EAD041F48001826822F073
:100AF000E0720A43826023E600007F4000F0FF03BB
:100B0000FFFF0700000020FE0000088000030050E7
:100B1000000021C31000C0901C000020400D030005
:100B2000000052C700010050000084CB704770479E
:100B30000068006C704700002DE9F05F0446006813
:100B400006684568DFF854B2DBF8080000F01F07BC
:100B5000B0070ED5A8070CD5E06DC00603D4E06D34
:100B600040F40060E0652046FFF760FD2168022048
:100B70000860DFF82CA270074FF0A04801D5680785
:100B800003D4300737D5280735D5E06DC00603D428
:100B9000E06D40F40070E065206801F00AFB20B3CE
:100BA0002068504501D1424600E00246824208D00A
:100BB0003FB1052F05D0092F03D0504503D1414641
:100BC00002E0C16801E00146C96889040DD40168EA
:100BD00009070AD501F0E5FA58B3E06D40F01000BE
:100BE000E065206E40F0010020662046FFF79EFF82
:100BF00021680C200860B00601D5A80603D4700651
:100C000058D5680656D5E06DC00603D4E06D40F4B3
:100C10000050E0652068C16C11F4C07F1AD000213B
:100C2000894601F0C6FA02462068504514D1434671
:100C300013E02068416821F00C014160E06D20F470
:100C40008070E065E06DC004CFD4E06D40F001003D
:100C5000E065CAE70121E3E70346834208D03FB1DC
:100C6000062F05D0072F03D0504503D1414602E09F
:100C7000C16801E00146C968B9F1000F14D08B01C9
:100C800002D58AB18A040FD4026852060CD58902B3
:100C90000AD401F082FAE8B3E06D40F01000E0659C
:100CA000206E40F0010020662046FFF7C0FC21685E
:100CB0006020086030060BD5280609D5E06D40F4A9
:100CC0008030E065204600F069F9216880200860E6
:100CD000F0050CD5E8050AD5E06D40F40030E0657C
:100CE0002046FFF7A6FC21684FF480700860B0052D
:100CF0000CD5A8050AD5E06D40F48020E0652046BB
:100D0000FFF798FC21684FF400700860F0062ED5BC
:100D1000E80600E008E02AD5E06BD0B1AFB1DBF81F
:100D2000080000F4604013E02068416821F0600191
:100D30004160E06D20F48050E065E06DC005B3D403
:100D4000E06D40F00100E065AEE72068C068C007D4
:100D500050B1E06D40F48060E065206E40F002002C
:100D600020662046FFF7E3FE21681020086070052A
:100D700012D5680510D5E06D40F48040E065206E26
:100D800040F00800206621684FF48060086020462B
:100D9000BDE8F05FFFF74CBCBDE8F09F00030050DA
:100DA00000010050F8B54FF0000504002E460095F4
:100DB00002D0E06D10B107E00120F8BD204600F040
:100DC000EFF8266684F8586020688168C1F34071A6
:100DD00019B18168694A1140816020688168C1F356
:100DE000007189B98168664A114041F08051816083
:100DF000644865490068B0FBF1F04000801C00E0E9
:100E0000401E00900028FBD120688168C1F300716A
:100E100041B9E16D41F01001E165216E41F0010140
:100E20002166012501F0BDF90646E06D00F01001D4
:100E3000E06D314305D040F01000E0650125284603
:100E4000F8BD20F4807040F00200E0652068806802
:100E500010F0010F11D14FF0A04080684B4900F015
:100E60000100896801F00101084306D14848616822
:100E7000826822F47C120A438260E168E06B627F40
:100E80000843A16841EA4231084394F8241040EA3B
:100E90000140012904D1218D3E4A02EB4141084322
:100EA000E16A29B101F47871226B014342EA010041
:100EB0002268D168384B19400143D160206801692C
:100EC000626B21F0406111430161206801F065F916
:100ED00006432ED1207F94F83810800340EA410267
:100EE0002168C86844F2020398431043C86020692F
:100EF0000028206801690AD041F48031016120682E
:100F000050F8C01F22696FF30D01114307E021F46F
:100F100080310161206850F8C01F6FF30D0101603E
:100F200094F8400001280CD02068016921F00101EB
:100F30000161606901282068016B21F00F0111D067
:100F400013E0D4E911010843D4E913121143084313
:100F500021680A6940F2FC739A43104340F0010093
:100F60000861E6E7226A521E11430163E06D20F03A
:100F7000020040F00100E06561E70000C0FFFF5F94
:100F8000C0FFFF7F1C000020400D03000001005047
:100F9000000300500000FEFF0740F0FF7047000014
:100FA00010B598B00446142111A8FFF7FCF94421AC
:100FB0006846FFF7F8F92068B0F1A04F2DD14FF443
:100FC0000040009080030F90684600F05FFB08B17E
:100FD000FFF7E0FA1248C16C41F40051C164C16CE2
:100FE00001F400511691C16C41F00201C164C06C62
:100FF00011A900F002001690022011900320129017
:1010000000201390074800F019F900221146122021
:1010100000F0A4FA122000F093FA18B010BD0000FE
:1010200000100240000400482DE9F04104463B480E
:101030000F46816801F01F05A16908290FD085B10D
:10104000052D0ED0092D0CD0806800F4604060B1F1
:10105000E06D40F02000E0650120BDE8F081082649
:1010600004E02068C068C007F1E7042600F010FA29
:10107000804615E0781C13D000F00AFAA0EB0800B7
:10108000B84200D867B920680068304208D1E06DE6
:1010900040F00400E065002084F858000320DCE7FD
:1010A000206800683042E5D0E06D40F40070E065F3
:1010B000206801F07EF880B1607F70B92068006818
:1010C00000070AD5E06D20F48070E065E06DC00493
:1010D00003D4E06D40F00100E065114A20684FF054
:1010E000A041904201D10B4600E00346834210D05C
:1010F0007DB1052D0DD0092D0BD0904200D00146B9
:10110000C968082E07D0490401D40C2101600020D1
:10111000A3E7C168F5E70821F8E7000000030050E5
:10112000000100502DE9F04104463848806800F085
:101130001F05206801F035F818B102210846BDE806
:10114000F08194F8580001280CD0012084F8580050
:101150002046FFF7C7F901004FF0000304D084F8E0
:101160005830EBE70220EAE7E06D40F60162904379
:1011700040F48070E065264A20684FF0A046904217
:1011800001D1374600E00746874200D01DB9E76D20
:1011900027F48017E765E76DFF0404D5276E27F075
:1011A0000607276600E023661C27076084F858308E
:1011B0002068904201D1334600E00346834215D0B7
:1011C000A5B1052D12D0092D10D0E36D43F4801385
:1011D000E365904200D13046C0688001AED5E06D35
:1011E00020F4005040F48050E065A7E7C268920107
:1011F00005D5E26D22F4005242F48052E265826825
:10120000044B1A40121D826098E700000003005052
:1012100000010050C0FFFF7F70B5044600F038F9B0
:101220000546601C02D004484068044400F030F9D0
:10123000401BA042FAD370BD100000202DE9F04FF2
:10124000DFF82092002301260324A9F1040B85B0C6
:101250000F2709F1040AABF1040EFAE006FA03F5D0
:101260002A407CD091F804C00CF0030CBCF1010FB3
:1012700002D0BCF1020F26D1D0F808C0CDF800C0D2
:101280004FEA430C04FA0CF8CDF810C0DDF800C0AA
:101290002CEA080CCDF800C0D1F80C80DDF810C0A5
:1012A00008FA0CF8DDF800C048EA0C08C0F808801D
:1012B000D0F804C02CEA050C0D79C5F300159D404B
:1012C00045EA0C0545600D79ED43AD070ED0C568C4
:1012D0004FEA430804FA08FC25EA0C05D1F808C0D7
:1012E0000CFA08FC4CEA050CC0F80CC00D7905F0AE
:1012F0000305022D16D1DD0800EB850CCDF808C0E2
:10130000DCF820805D074FEAD56C07FA0CF528EA77
:1013100005080D6905FA0CF5DDF808C045EA080571
:10132000CCF8205005684FEA430CCDF808C004FA09
:101330000CFC25EA0C0591F804C00CF00308DDF85C
:1013400008C008FA0CF848EA0508C0F800804D68A3
:1013500015F4403F7CD0444DD5F860C000E077E004
:101360004CF0010CC5F860C02D6E23F0030C05F0A5
:10137000010500953D4D65440295AD684FEA837CBB
:101380004FEA1C7807FA08FC25EA0C05B0F1904FEB
:1013900006D0DFF8DCC0604505D14FF0010C20E03D
:1013A0004FF0000C1DE0DFF8CCC0604502D14FF0DB
:1013B000020C16E0DFF8C0C0604502D14FF0030C0C
:1013C0000FE0DFF8B8C0604502D14FF0040C08E030
:1013D000DFF8ACC0604502D14FF0050C01E04FF0E2
:1013E000060C0CFA08FC4CEA050C029DC5F808C076
:1013F000D9F80050CC46D1F8048095435FEAC8285C
:1014000000D51543CCF80050DAF80050D446D1F896
:10141000048095435FEA882800D51543CCF8005036
:10142000DBF80050DC46D1F8048095435FEA883849
:1014300000D51543CCF80050DEF80050F446D1F842
:10144000048095435FEAC83800D51543CCF80050B6
:101450005B1C0A6832FA03F57FF400AF05B0BDE803
:10146000F08F00000804014000100240000001401D
:101470000004004800080048000C00480010004824
:10148000001400480AB18161704781627047000012
:101490000148806870470000100000200248816801
:1014A00042681144816070471000002010B500248C
:1014B000032000F073F8002000F008F808B10124C0
:1014C00001E000F025F8204610BD000070B50E4E7A
:1014D00005460024706898B14FF47A71B1FBF0F0C2
:1014E0000A490968B1FBF0F000F060FD40B9102D29
:1014F00006D200222946501E00F030F8356000E088
:101500000124204670BD0000100000201C000020B7
:101510000A4882B0016E41F001010166016E01F0DE
:1015200001010091816D41F080518165806D00F075
:101530008050009002B000F0A1B8000000100240FE
:10154000002809DB00F01F020121914040098000C2
:1015500000F1E020C0F8001170470000F0B40E4B1D
:101560001B680C46C3F30223C3F10705042D00D901
:101570000425191D072901D2002300E0DB1E0126E6
:1015800006FA05F1491E214099409E40761E1640FC
:101590003143F0BC01F0BFB90CED00E0064900F0AA
:1015A000070208684FF6FF03184040EA0220034A8A
:1015B00010430860704700000CED00E00000FA05E1
:1015C0002B492C4B0A6832214A432B4940B1B0F5D4
:1015D000007F086829D020F4C06040F480602CE0CF
:1015E0000868C0F34120022804D051F8800F20F48D
:1015F000807022E0D1F8800020F48070C1F8800073
:10160000086820F4C06040F400700860B2FBF3F09A
:10161000401C00E0401E4A69520501D50028F9D15E
:10162000486940050AD503207047C0F341200228CD
:1016300006D051F8800F40F4807008600020704799
:10164000D1F8800040F48070C1F88000086820F470
:10165000C06040F400700860B2FBF3F0401C00E092
:10166000401E4A695205DBD50028F9D1D8E70000B1
:101670001C00002040420F000070004002488168BA
:1016800041F4804181607047007000402DE9F843CB
:101690000446006800269D4D00035ED5A86D002716
:1016A000C00008D4A86D40F08050A865A86D01273F
:1016B00000F080500090DFF85892D9F8001041F403
:1016C0008071C9F80010FFF7E3FE804606E000BF16
:1016D000FFF7DEFEA0EB080002282BD8D9F80000A7
:1016E000C005F5D5D5F8900010F4407014D0216CE9
:1016F000814211D0D5F89000D5F8901020F44070B8
:1017000041F48031C5F89010D5F8901021F4803163
:10171000C5F89010C5F89000C00711D0FFF7B8FECB
:10172000804641F2883907E0FFF7B2FEA0EB0801DE
:10173000494501D903260BE0D5F890008007F3D581
:10174000D5F89000216C20F440700843C5F8900053
:101750001FB1A86D20F08050A8652078C00707D081
:10176000D5F88800616820F003000843C5F88800B8
:101770002078800707D5D5F88800A16820F00C00F4
:101780000843C5F888002078400707D5D5F88800B9
:10179000E16820F030000843C5F888002078000791
:1017A00007D5D5F88800216920F0C0000843C5F8A6
:1017B00088002078800607D5D5F88800616920F474
:1017C00040600843C5F888002078400607D5D5F862
:1017D0008800A16920F440500843C5F888002078AB
:1017E000000607D5D5F88800E16920F44040084399
:1017F000C5F888002088C00507D5D5F88800216A7B
:1018000020F440300843C5F888002088800507D5BB
:10181000D5F88800616A20F440200843C5F88800A4
:10182000208840050FD5D5F88800A16A20F4401023
:101830000843C5F88800A06AB0F5801F03D1E868A6
:1018400040F48010E860208800050FD5D5F88800A6
:10185000E16A20F440000843C5F88800E06AB0F56A
:10186000800F03D1E86840F48010E8602088C0044D
:101870000FD5D5F88800216B20F040700843C5F8DB
:101880008800206BB0F1807F03D1E86840F48010BD
:10189000E86020884FF0006180040ED5D5F88800FC
:1018A000626B20F040601043C5F88800606B88428E
:1018B00003D1E86840F48010E860208840040ED529
:1018C000D5F88800A26B20F040601043C5F888006E
:1018D000A06B884203D1E86840F48010E86020885B
:1018E00000040FD5D5F88800E16B20F04050084384
:1018F000C5F88800E06BB0F1805F03D1E86840F480
:101900008030E8603046BDE8F883000000100240F7
:10191000007000402DE9F0470E4605004FF000072B
:1019200025D0DFF8AC81D8F8000000F00F00B042FD
:101930000CD2D8F8001021F00F013143C8F8001084
:10194000D8F8000000F00F00B04210D12968614CB7
:10195000C80741F2883A5AD06868DFF87C910328BA
:1019600008D0022820682DD0400500282CDB01205B
:10197000BDE8F08720688001F9D5E06800F0030237
:10198000E068C0F30310401C032A19D0534A00BF7B
:10199000B2FBF0F0E268C2F306225043E268C2F301
:1019A0004162521C5200B0FBF2F0484517D9A068C2
:1019B00010F0F00F0CD0880711D5A86840B10EE0E8
:1019C000474AE5E78003D0E700F0B6F8484506D976
:1019D000A06820F0F00040F08000A0608027A068A0
:1019E000696820F003000843A060FFF751FD8146BD
:1019F00006E000BFFFF74CFDA0EB090151453AD8C6
:101A0000A068696800F00C00B0EB810FF2D1286883
:101A1000810714D5400703D5A06840F4E060A060BA
:101A20002878000705D5A06820F4605040F4E060F5
:101A3000A060A068A96820F0F000084304E0802FAF
:101A400003D1A06820F0F000A060D8F80010404654
:101A500001F00F01B14216D9016821F00F013143A5
:101A60000160FFF715FD074607E000BFFFF710FD17
:101A7000C11B514501D903207AE7D8F8000000F0D6
:101A80000F00B042F2D12878400705D5A068E96878
:101A900020F4E0600843A0602878000706D5A0681D
:101AA000296920F4605040EAC100A06000F044F8C9
:101AB000A1680C4AC1F30311515C01F01F01C84039
:101AC0000949086009480068BDE8F047FFF7FEBC17
:101AD000002002400010024000B4C4040024F400BE
:101AE00000366E01162C00081C000020100000209B
:101AF0000548064900688968054AC1F30221515C1E
:101B000001F01F01C84070471C0000200010024077
:101B1000262C00080548064900688968054AC1F373
:101B2000C221515C01F01F01C84070471C00002019
:101B300000100240262C0008184910B58868C0F330
:101B400081021748012A0BD08A68164BC2F3810222
:101B5000022A06D08A68C2F38102032A03D0002039
:101B600010BD184610BDCA6802F00304CA68C2F36B
:101B70000312521C032C02D0B0FBF2F001E0B3FBC5
:101B8000F2F0CA68C968C2F306225043C1F341614A
:101B9000491C4900B0FBF1F010BD000000100240EC
:101BA0000024F40000366E012DE9F84304007AD0D9
:101BB0002078F84DC00747D0A868E96800F00C000D
:101BC00001F003010C2802D0082817D001E00329F6
:101BD00014D06068B0F5803F17D0B0F5A02F28680A
:101BE00017D020F480302860286820F480202860F6
:101BF0006068E0B1FFF74CFC064614E028688003FB
:101C000022D560680028D2D01EE0286840F48030D9
:101C1000EDE740F480202860F7E700BFFFF738FCCD
:101C2000801B642870D828688003F7D50CE0FFF784
:101C30002FFC064605E000BFFFF72AFC801B642846
:101C4000F0D828688003F7D4207880074CD5A8689E
:101C5000E96800F00C0001F003010C2802D0042810
:101C60000DD001E002290AD0E068002828682BD0B6
:101C700040F480702860FFF70BFC064619E02868E6
:101C8000400502D5E068002891D06868217C20F0EA
:101C9000FE4040EA01606860BF480068FFF716FC3C
:101CA000002800D120E072E1FFF7F2FB801B022840
:101CB000B8D828684005F7D56868217C20F0FE4038
:101CC00040EA016068600FE020F480702860FFF750
:101CD000DFFB064605E000BFFFF7DAFB801B0228AA
:101CE000A0D828684005F7D42078000729D5606976
:101CF0000028D5F8940013D040F00100C5F89400F6
:101D0000FFF7C6FB064606E090E000BFFFF7C0FB0A
:101D1000801B022886D8D5F894008007F6D510E0FD
:101D200020F00100C5F89400FFF7B2FB064604E07E
:101D3000FFF7AEFB801B022878D8D5F89400800707
:101D4000F6D42078400761D5A86D0026C00008D4DD
:101D5000A86D40F08050A865A86D012600F0805065
:101D600000908E480168C90511D40168804641F48D
:101D700080710160FFF78CFB074604E0FFF788FBEA
:101D8000C01B022852D8D8F80000C005F6D5A068BC
:101D9000012815D00528D5F8900016D020F00100B4
:101DA000C5F89000D5F8900020F00400C5F8900028
:101DB000A06841F28838B8B1FFF76AFB07460EE029
:101DC000D5F8900040F00100F0E740F00400C5F8BD
:101DD0009000F5E7FFF75CFBC11B414526D8D5F81D
:101DE00090008007F6D50CE0FFF752FB074604E0B1
:101DF000FFF74EFBC11B414518D8D5F8900080076E
:101E0000F6D41EB1A86D20F08050A8652078800619
:101E100029D5A0690028D5F8980013D040F001001A
:101E2000C5F89800FFF734FB064606E075E000BFF2
:101E3000FFF72EFB801B02286FD8D5F8980080078B
:101E4000F6D510E020F00100C5F89800FFF720FB60
:101E5000064604E0FFF71CFB801B02285DD8D5F87E
:101E600098008007F6D4E069F0B3A968C1F3810156
:101E700003295DD00228286820F08070286003D0F4
:101E8000FFF706FB04464BE0FFF702FB064604E0C3
:101E9000FFF7FEFA801B02283FD828688001F7D49C
:101EA000F4E908016FF00F0202EB01110843218AE7
:101EB0005204490802EB4151A26841EA0221084359
:101EC000217D4FF07E42490802EB41610843217BAE
:101ED00040EAC160E968324A11400843E860286876
:101EE00040F08070286000E05EE0E86840F08070BC
:101EF000E860FFF7CDFA044605E000BFFFF7C8FA37
:101F0000001B022809D828688001F7D54CE000BFE3
:101F1000FFF7BEFA001B022802D90320BDE8F883B0
:101F200028688001F4D4E8681E490840E8603BE076
:101F30000128F3D0E868226A00F00301914226D11B
:101F4000616A00F0F0020901103991421FD1A26AC2
:101F500000F4FE41B1EB022F19D194F82C2000F0CF
:101F60007841B1EBC26F12D1218E00F4C002490852
:101F70004905A1F50011914209D194F8341000F0FF
:101F8000C06049084906A1F1007181420CD00120CE
:101F9000C4E7000000100240100000200070004064
:101FA0000C809F01FCFFEEFE0020B7E710B5401E3D
:101FB000B0F1807F01D3012010BD4FF0E0246061BB
:101FC0000F21601700F0A7FC0020A061072020610E
:101FD000002010BD90F88410012918D0012180F84C
:101FE00084102421C0F8881001680A680B6823F067
:101FF00001030B6022F00051002242660368196061
:102000002021C0F8881080F88420104670470220F4
:10201000704770B5044690F8840001281DD0012057
:1020200084F884002420C4F88800206805680268C9
:1020300022F0010202602068826822F060620A4396
:102040008260204600F0DCF9206805602020C4F89A
:102050008800002084F8840070BD022070BD70B537
:10206000044690F8840001281DD0012084F88400E3
:102070002420C4F8880020680568026822F0010264
:1020800002602068826822F060420A438260204633
:1020900000F0B6F9206805602020C4F88800002010
:1020A00084F8840070BD022070BD10B5040003D018
:1020B000D4F8880010B107E0012010BD002084F89A
:1020C0008400204600F026F82420C4F88800206808
:1020D000016821F001010160A06A10B1204600F002
:1020E000B1F9204600F092FA0128E6D02068416854
:1020F00021F4904141602068816821F02A018160CB
:102100002068016841F0010101602046BDE81040EF
:1021100000F0FCB910B598B00446142111A8FEF7E0
:1021200042F944216846FEF73EF916492068884284
:1021300026D100242020059400906846FFF7A6FAD7
:1021400008B1FEF727FA1048C16D41F00101C165E1
:10215000C16D01F001011691C16C41F00101C16432
:10216000C06C11AA00F0010016900C20022182E838
:102170001300CDE9144011A94FF09040FFF75EF82D
:1021800018B010BD0080004000100240FEE700EBD8
:102190008100006E00F0F84070478068C0F3C00016
:1021A00070478068C0F3800070478068C0F380008B
:1021B0007047C06810F4406F01D0002070470120C4
:1021C0007047042303EAD15310B518444369C1F39F
:1021D000045107248C40A3438A401343436110BD3C
:1021E00000EB8100016E21F0004111430166704750
:1021F00030B58BB0002408940994202168460A94D5
:10220000FEF7D1F81D484FF0A041042501604FF4BE
:102210003011C0E90114C4600461C0E905450477C8
:1022200044770121016280F82440C462046380F88D
:102230003840C46380F84040FEF7B4FD08B1FEF7B3
:10224000A9F908A90D480894FEF7F6F908B1FEF7B8
:10225000A1F90B48009006200190072002907F20F2
:102260000594CDE9030569460448FEF74FFA0028B6
:1022700001D0FEF78FF90BB030BD00002000002028
:102280000010603230B587B014216846FEF78BF835
:102290001F48C16C41F00401C164C16C01F004012C
:1022A0000591C16C41F02001C164C16C01F02001B5
:1022B0000591C16C41F00101C164C16C01F00101E3
:1022C0000591C16C41F00201C164C06C4FF09045B2
:1022D00000F002000590002220212846FFF7D2F8E6
:1022E0004FF4005000904FF488100024CDE9010411
:1022F00069460848FEF7A2FF202000900120CDE9A2
:102300000104694628460394FEF798FF07B030BDE4
:102310000010024000080048174810B51549016038
:102320004FF4E1314160002181600C22C160C0E9BD
:1023300004128161016241628162FFF7B6FE08B159
:10234000FEF728F900210C48FFF789FE08B1FEF7D7
:1023500021F900210848FFF75CFE08B1FEF71AF9E1
:102360000548FFF737FE002803D0BDE81040FEF710
:1023700011B910BD008000408C000020FEE7FEE790
:1023800070477047FFF78AB810B594B03821684697
:10239000FEF709F814210EA8FEF705F80020FFF754
:1023A0000FF9012000900004032406210190CDE9DB
:1023B000084102205521CDE90A1007900C900D909C
:1023C0006846FFF7F1FB08B172B6FEE70F20CDE9D2
:1023D0000E04002010901190129004210EA8FFF717
:1023E00099FA002801D072B6FEE714B010BD0000C3
:1023F0000248016841F470010160704788ED00E017
:1024000030B5416EB9B1026891689268C1F342611A
:102410000B4B520F9C5CE50003F10804A25CB5FB7A
:10242000F2F2A0F86A205A5C615CD200B2FBF1F1D2
:10243000A0F8681030BD0121A0F86A10F8E700008C
:10244000062C000890F82810090706D501684A688C
:10245000836B22F400421A434A6090F82810C9079F
:1024600006D001684A68C36A22F400321A434A60FF
:1024700090F82810890706D501684A68036B22F492
:1024800080321A434A6090F82810490706D501683F
:102490004A68436B22F480221A434A6090F828105D
:1024A000C90606D501688A68C36B22F480521A43B4
:1024B0008A6090F82810890606D501688A68036C3E
:1024C00022F400521A438A6090F82810490611D568
:1024D00001684A68436C22F480121A434A60416CD6
:1024E000B1F5801F06D101684A68836C22F4C002EE
:1024F0001A434A6090F82810090606D501684A6810
:10250000C06C22F4002202434A6070472DE9F84370
:1025100000260446C0F89060FEF7BAFF80462068A7
:1025200000684FF0200500076FF07E4713D5434643
:10253000002229042046009700F0A2F958B1216832
:1025400051E8000F20F0800041E80002002AF6D197
:10255000C4F8885021E020680068400722D543462F
:1025600000224FF480012046009700F089F9C8B19D
:10257000216851E8000F20F4907041E80002002A21
:10258000F6D12068083050E8001F21F0010140E832
:102590000012002AF5D1C4F88C5084F8846003201E
:1025A000BDE8F883C4F88850C4F88C5044F86C6FC8
:1025B000666026760020F3E710B5026852E8001F37
:1025C00021F4907142E80013002BF6D10E4B026803
:1025D000083252E8001F194042E80014002CF6D1DE
:1025E000C16E012908D1016851E8002F22F01002C4
:1025F00041E80023002BF6D12021C0F88C100021E7
:10260000C166416710BD0000FEFFFFEF2DE9F041FC
:102610000446016880682269E36910436269002505
:102620001A431043DFF82CC20A688B4B1A4002434E
:102630000A6020684168E26821F44051114341601A
:102640002168A069614501D0226A10438A68834BE2
:102650001A4002438A602068C16A626A21F00F0151
:102660001143C1627E4923687E488B420DD1D0F868
:10267000880010F0030006D0012855D0022842D06F
:1026800003283FD152E001203DE077498B420BD136
:10269000D0F8880010F00C0035D0042833D008287A
:1026A00040D00C282ED141E070498B420BD1D0F89C
:1026B000880010F0300026D0102835D0202831D0E6
:1026C00030281FD132E06A498B420BD1D0F8880004
:1026D00010F0C00017D0402826D0802822D0C02873
:1026E00010D123E063450DD1D0F8880010F440608C
:1026F00009D0B0F5806F17D0B0F5006F12D0B0F5EB
:10270000406F13D010205B495B4F00264FF400420E
:1027100063453BD160B1022813D004280BD00828B0
:1027200072D10DE00220EEE70420ECE70820EAE792
:10273000FFF7DEF901E0FFF7FFF9010001D17CE0CE
:102740001146606A37F810206768B1FBF2F007EBBA
:102750004703834270D8B0EB073F6DD8002308468B
:102760001946FDF7A9FD090241EA10610202780845
:10277000101871413A460023FDF79EFD3F4AA0F52F
:102780004071914258D82168C86056E0E3694FF61D
:10279000EF7893422CD109284ED2DFE800F00508EB
:1027A000114D0D4D4D4D1000FFF7A2F901E0FFF75F
:1027B000B1F9010004D140E0FFF7BEF9F9E7114695
:1027C000606A37F81000B1FBF0F04100606801EB7F
:1027D0005001B1FBF0F0A0F1100141452CD84FF6AB
:1027E000F0710140C0F3420001432068C16024E061
:1027F000092821D2DFE800F0050912200E20202050
:102800001100FFF775F902E016E0FFF783F9010008
:1028100004D112E0FFF790F9F9E71146606A37F842
:102820001000B1FBF0F1606801EB5001B1FBF0F07A
:10283000A0F1100141450AD901250120A4F86A0040
:1028400024F8680F2846E6602661BDE8F08180B272
:1028500099E7000000800040F369FFCFFFF4FF110B
:102860000038014000100240004400400048004091
:10287000004C00400024F400EE2B0008FFFC0F0089
:102880002DE9F047994617460D4604464FF00008DB
:10289000089E33E0701C31D0FEF7FAFDA0EB090072
:1028A000B04218D8BEB120680168490726D5802DEE
:1028B00024D0402D22D0C169C94309070DD4082571
:1028C00005622046FFF778FEC4F8905084F88480B3
:1028D0000120BDE8F0870320FBE7C069C043000585
:1028E0000CD421684FF4006008622046FFF764FEB4
:1028F0002020C4F8900084F88480ECE72068C06948
:1029000035EA000004D00020B842C3D00020E0E740
:102910000120F9E7FEE70907090E002804DB00F1B2
:10292000E02080F80014704700F00F0000F1E02074
:1029300080F8141D704700002DED048BFEF7B6FDE6
:10294000FFF722FDFFF79EFCFFF752FCFFF7E4FCC8
:102950001548FEF725FB154C9FED158B9FED169B3B
:102960004FF4FA757F211048FDF716FE0E48FEF76A
:10297000D9FB32210C48FEF757FB0B48FEF7D8F87D
:1029800000F01EF841EC100B53EC182B84ED000BFB
:1029900000F02AF853EC192B00F026F8C4E90201E4
:1029A0002846FEF739FCDDE720000020000000206B
:1029B000000000000000303F6666666666660A40FA
:1029C000B0FA80F310FA03F10AD0C3F11D0303F546
:1029D00080634FEA41504FEA035202EBD121704726
:1029E0004FF0000070470000DFF848C170B51CEAE6
:1029F000111E1EBF1CEA13159EEA0C0F95EA0C0F60
:102A000000F06F8081EA030423EA4C134EEAD47E7F
:102A100021EA4C1141F4801143F48013AE44A1FB30
:102A2000024CA0FB0365AEF17F7E361955EB0C0519
:102A3000A1FB034C4CF10003A0FB021C16EB0C069F
:102A4000654153F10003094218BF46F0010613F433
:102A5000007F0BD14FEA03314FEA0530340341EADE
:102A6000155140EA16506FF003020AE04FEAC32105
:102A70004FEAC520F40241EA555140EA56506FF042
:102A8000020202EB2E4201EB025585EACE710AD01A
:102A90005FEA440C18BF24F0004450F1000041F1FB
:102AA000000120EAD47040F2FE7C624500D270BD85
:102AB000A84214BF4FF080444FF04044002E08BF9E
:102AC0000024BEF1806FA8BFA1F1C041BDE87040F5
:102AD00080F282804FF0000001F1C04101F000411E
:102AE00070479EEA0C0F0CEA131518BF95EA0C0FFD
:102AF00006D04FF0000081EA030E0EF0004170BDD9
:102B000000F01CF88900013E00F007B800F009B899
:102B10004FEA430C5FEA5C5C08D081EA030100F0F5
:102B20005BB84FEA410C5FEA5C5CF6D14FF0000005
:102B3000014970470000FF070000F87F0EF1020E08
:102B40002EF0030E5EF8046B364205D4012A43EBE7
:102B5000030515F5001F12D8012841EB010C1CF5E7
:102B6000001F0CD80ED14FEAD17C15F5001F0CEBDD
:102B70004C0C0CF1020C08BF4CEBD37C04E04FF082
:102B8000080C01E04FEAD37C0CEB4C0526FA05F665
:102B900006F00706B6F1040C06D20EEB860CBDE873
:102BA00070404CF0010C6047DFE80CF0090B0202AA
:102BB0004FF000414FF00000A1F5002170BD194613
:102BC0001046012851EB010418BFD4F5001484BF4E
:102BD000002001F0004170BD0808A0F500114FEA87
:102BE000310170474FF04070E1EE100A704701006C
:102BF00002000400060008000A000C00100020007B
:102C000040008000000101010103070100000804E9
:102C100002040801010100000000000000000102A0
:102C20000304060708090000000001020304000075
:102C3000502C0008000000202000000014020008B2
:102C4000702C0008200000206007000030020008FF
:102C50000000000000000000000000000000000074
:102C60001000000001000000000000000024F4003B
:04000005080001D915
:00000001FF
