:020000040800F2
:10000000600C002099020008D72800082527000866
:10001000D5280008B90E00085D3000080000000077
:10002000000000000000000000000000DB280008C5
:10003000770F000800000000D9280008DD2800081C
:10004000B3020008B3020008B3020008B3020008BC
:10005000B3020008B3020008B3020008B3020008AC
:10006000B3020008B3020008B3020008BD0E000886
:10007000C90E0008B3020008B3020008B30200086A
:10008000B302000800000000B3020008B302000839
:10009000B3020008B3020008B3020008B30200086C
:1000A000B3020008B3020008B3020008B30200085C
:1000B000B3020008B3020008B3020008B30200084C
:1000C000B3020008B3020008B3020008B30200083C
:1000D000B3020008B3020008B3020008B30200082C
:1000E000B3020008B3020008B3020008B30200081C
:1000F000B3020008B3020008B302000800000000C9
:1001000000000000B302000800000000B302000875
:100110005929000800000000B3020008B3020008DB
:10012000B3020008B3020008B3020008B3020008DB
:10013000B30200080000000000000000B302000845
:10014000B3020008B3020008000000000000000035
:10015000000000000000000000000000000000009F
:10016000000000000000000000000000B3020008D2
:10017000B3020008000000000000000000000000C2
:1001800000000000B30200080000000000000000B2
:10019000000000000000000000000000000000005F
:1001A0000000000000000000B3020008B3020008D5
:1001B000B3020008B3020008B30200080000000008
:1001C00000000000B3020008000000000000000072
:1001D000B3020008B302000800F002F800F04DF886
:1001E0000AA090E8000C82448344AAF10107DA4592
:1001F00001D100F042F8AFF2090EBAE80F0013F097
:10020000010F18BFFB1A43F001031847902F00009D
:10021000B02F0000103A24BF78C878C1FAD852072E
:1002200024BF30C830C144BF04680C607047000070
:100230000023002400250026103A28BF78C1FBD8EF
:10024000520728BF30C148BF0B607047642900F0D7
:100250003F81732900F05F83002070471FB502F0D3
:1002600077FF00F0E5FD04000020002102F05AFFB6
:10027000401C60601FBD10B510BD00F0A1FD11460F
:10028000FFF7ECFF02F008FF00F0C8FD03B4FFF732
:10029000F2FF03BC02F0F3FE09488047094800471B
:1002A000FEE7FEE7FEE7FEE7FEE7FEE7FEE7FEE726
:1002B000FEE7FEE704480549054A064B7047000083
:1002C00049290008D901000860060020600C0020C0
:1002D0006008002060080020704753EA020C00F01C
:1002E00069802DE9F04B4FF00006002B1FBFB3FAD9
:1002F00083F503FA05F424FA05F65E4012BF1643AF
:10030000B2FA82F502FA05F4C5F120051EBF22FA01
:1003100005FC44EA0C04203556EA044C4FEA144428
:1003200018BF641C4FF000084FF00009904271EBB9
:10033000030C39D3002919BFB1FA81F701FA07F686
:10034000B0FA80F700FA07F6C7F120071EBF20FABF
:1003500007FC46EA0C062037B6FBF4FCA7EB0507C2
:10036000103F07F01F0BCBF120060CFA0BFB2CFA09
:1003700006F644BFB3460026202FA4BF5E464FF0CA
:10038000000B5BEA060C08BF4FF0010B19EB0B09E1
:10039000ABFB027C48EB0608C01B06FB02CC0BFB48
:1003A00003CC71EB0C01C1E70B46024641464846BF
:1003B000BDE8F08B13B54FF000004FF00001AFF334
:1003C0000080BDE81C4070470FB4044910B503AA73
:1003D000029800F0A5FA10BC5DF814FB00000020A4
:1003E0000FB41CB50C0007AA009001D02044401E99
:1003F000074B7B4469460190069800F05AFA002C9E
:1004000003D06946002000F067FA1CBC5DF814FBBD
:10041000ED0400002DE9F0410E4604460020206264
:100420002046E168884730B3252805D0D4E901216A
:100430009047206A401CF2E7E16820460027884781
:10044000050018D0A5F14100192802D820354FF435
:1004500000673246294620462760FFF7F7FE40B185
:10046000012804D0F61D26F007060836D8E7361D09
:10047000D6E72846DAE7206ABDE8F08170B50C4679
:100480000546012A05D02878800600D5EA690023B0
:1004900002E0012305E05B1C934202D2E05C0028ED
:1004A000F9D1A869E618C01AA861286A1844286218
:1004B0002846AFF3008004E0D5E9012114F8010BD0
:1004C0009047B442F8D32846AFF3008070BD0000D7
:1004D0002DE9F0410646002410687529314616A51D
:1004E00010D0AFF30080002802DA404213A507E0E5
:1004F00031688A0701D512A502E0490704D511A584
:10050000012401E0AFF3008000210A2206F1240754
:1005100009E0B0FBF2FCB0FBF2F302FB1C00303050
:1005200078541846491C0028F3D123462A46304601
:10053000BDE8F04100F05EB9000000002D000000B1
:100540002B000000200000000FB400B58DB010A9F2
:10055000099000910B904FF0FF300A9000200C9012
:10056000064878440690064878446A4607900F99F2
:1005700009A800F0FBF90DB05DF814FB270400009A
:100580003F0400002DE9FF5F1D464FF0FF3B914601
:100590004FF000085F46D5E90146A96901987F1C24
:1005A0008847296A824688470028F6D1BAF1FF3F7A
:1005B0000CD0002E24F4C06419DD600614D5BAF105
:1005C0002B0F09D0BAF12D0F0ED103E0584604B01D
:1005D000BDE8F09F44F48064A96901987F1C8847B6
:1005E000761E8246002E02DDBAF1300F03D0B9F13B
:1005F000000F26D032E0A969761E01987F1C44F4D2
:1006000000748847002E824605DDBAF1780F06D0C7
:10061000BAF1580F03D0B9F1000F10D01EE0B9F1B4
:10062000000F02D0B9F1100F18D1A969761E0198F8
:100630007F1C24F4007488478246102002E00820C2
:1006400000E00A20814609E0A96908FB0908761E36
:1006500001987F1C44F4007488478246002E05DD13
:100660004946504600F06EF90028EDDAE969019834
:100670008847A00502D46FF00100A8E7E00725D164
:10068000600613D5600502D5C8F1000000E04046C1
:1006900029680A1D2A600968220501D5087015E03D
:1006A000220701D5088011E008600FE02868011DCD
:1006B00029600068210502D580F8008006E0210746
:1006C00002D5A0F8008001E0C0F8008038467EE73F
:1006D000032A40F2308010F0030C00F0158011F86E
:1006E000013BBCF1020F624498BF11F801CB00F846
:1006F000013B38BF11F8013BA2F1040298BF00F89A
:1007000001CB38BF00F8013B11F0030300F05E811C
:10071000083AC0F0088051F8043B083A51F804CB7D
:10072000A0E80810F5E7121D5CBF51F8043B40F843
:10073000043BAFF30080D20724BF11F8013B11F84E
:1007400001CB48BF11F8012B24BF00F8013B00F892
:1007500001CB48BF00F8012B70474FF0000204297D
:10076000C0F0128010F0030C00F01B80CCF1040CE0
:10077000BCF1020F18BF00F8012BA8BF20F8022B14
:10078000A1EB0C0100F00DB85FEAC17C24BF00F8BA
:10079000012B00F8012B48BF00F8012B70474FF0E8
:1007A000000200B5134694469646203922BFA0E8C1
:1007B0000C50A0E80C50B1F12001BFF4F7AF0907CD
:1007C00028BFA0E80C5048BF0CC05DF804EB8900BE
:1007D00028BF40F8042B08BF704748BF20F8022B01
:1007E00011F0804F18BF00F8012B70477047704719
:1007F000704770472DE9F0470D46994692460446EA
:1008000000F124080168880604D5E06921F0100190
:10081000216000E00120A84201DD471B00E0002725
:10082000A1697A1902EB0900081AA0612078C006B4
:1008300002D42046AFF30080002608E0D4E901216D
:100840001AF806009047206A401C761C20624E452C
:10085000F4DB2078C0060AD52046AFF3008006E01E
:10086000D4E9012130209047206A401C2062381EC4
:10087000A7F10107F4DC07E0D4E9012118F805002D
:100880009047206A401C2062281EA5F10105F3DC78
:100890002046AFF300802078000602D50220BDE894
:1008A000F0870120FBE7000001694A1C026108781B
:1008B000704700B58FB0CDE90131002105910549A0
:1008C0007944CDE9031011466846FFF7A3FD0FB048
:1008D00000BD0000E5FFFFFF0A6802F8010B0A6097
:1008E0007047D1E900239A4202D2531C0B6010706A
:1008F000704710B5436913B1AFF3008001E0FFF713
:10090000BDFD012010BD127800F124010A70002203
:100910004A700122EDE711684FF0FF32E9E700006D
:10092000074B70B50D467B44FFF7C3FF04462846CE
:1009300000F042FA10B14FF0FF3070BD204670BD9C
:10094000572700003A2800D2303820F02002412AF0
:1009500001D3A2F13700884201D34FF0FF30704736
:10096000026811441378016018467047D160054948
:1009700079445161044979441162002111611146A1
:1009800000F060B8EDFFFFFFB7000000426842B121
:10099000016811F8013B23B1521EC0E9001218464C
:1009A00070470121C160881E704742685AB1C36810
:1009B000016843B983688B4205D0491E521CC0E9C7
:1009C0000012002070474FF0FF30704710B5203AFA
:1009D000C0F00B80B1E81850203AA0E81850B1E8F8
:1009E0001850A0E81850BFF4F5AF5FEA027C24BFAE
:1009F000B1E81850A0E8185044BF18C918C0BDE8A5
:100A000010405FEA827C24BF51F8043B40F8043B6D
:100A100008BF7047D20728BF31F8023B48BF11F822
:100A2000012B28BF20F8023B48BF00F8012B70477C
:100A300010B5044600F0EAF90068005D00F001001E
:100A400010BD00002DE9F34F4FF0000A0C4656464A
:100A50008DB001200C9001F10C000B9062690B9895
:100A60000121904705002DD0252D2CD0216A8847E3
:100A7000C0B162690B9801219047216A884700281C
:100A8000F7D16269411E0B98904700E0761CA1697E
:100A90000D988847216A88470028F7D1E1690D98A9
:100AA0008847DBE7A1690D988847A842074601D12E
:100AB000761CD3E7E1690D9888477F1C02D1BAF113
:100AC000000F6FD06BE162690B9800273D463946F5
:100AD00090472A2804D162690B980121904701258B
:100AE000DFF8D08262690B9801219047A0F13001B4
:100AF0000A290AD24745E5DC07EB870100EB4107ED
:100B0000303FDFD445F01005ECE7E90601D46FF083
:100B100000476C280AD04C2814D0682815D06A28C1
:100B20000DD074281CD07A281AD01DE062690B9869
:100B3000012190476C2802D045F0040514E045F0EF
:100B400002050DE045F020050AE062690B980121DD
:100B50009047682802D045F0080505E045F4006597
:100B600062690B9801219047C4E9015765283DD07F
:100B700019DC58287AD00CDC452837D004DC25282D
:100B800026D041289ED131E046282FD0472899D140
:100B90002CE05B2877D0612828D063287CD064289B
:100BA00023D15AE0F6E06F2848D008DC66281DD033
:100BB00067281BD0692821D06E2816D127E070281D
:100BC00045D0732868D0752847D078280DD14DE0DE
:100BD000A1690D988847252805463FF469AFE1696A
:100BE0000D9888476D1C3FF46AAFD8E00D992346F5
:100BF0006A466FF00100AFF30080C5E045F04000A9
:100C000023464FF000026060A80736D43EE0E807B4
:100C10007FF447AF2068011D21600068290501D5D8
:100C200006701BE7290701D5068017E7A90703D53A
:100C3000F117C0E9006111E706600FE745F04000D9
:100C400023464FF008026060A80716D41EE040F665
:100C50000E0125EA0100606016E045F040002346E1
:100C60004FF00A026060A80707D40FE045F040008B
:100C70006060A80708D5234610220D996FF0010087
:100C8000AFF3008080E007E0102223460D996FF05B
:100C90000100FFF777FC77E04FF0000963284F462B
:100CA000C8464B46CB4602D05B2806D038E0E80663
:100CB00001D40120A060012732E06269D4F80CB0B1
:100CC0000B98012190475E2807D14FF00109494652
:100CD0006269D4F80CB00B989047216939B90021AA
:100CE0000A4603AB43F82120491C0829FADBD8B394
:100CF000216949B308F1010862690B980121904705
:100D00005D28F4D1B9F1000F09D0002003A951F8F2
:100D10002020D24341F82020401C0828F7DB03ABF9
:100D20002069002820794FEA40701ED05B46224699
:100D3000CDF80080CDE901970D9900286FF00100F2
:100D400020DAAFF300801FE0C11703AA00EBD161E6
:100D50004B1121F01F0102EB8302411A136801209D
:100D6000884003431360C7E719E00D992246002825
:100D70006FF00100009702DAAFF3008004E0AFF3F8
:100D8000008001E0AFF3008000280ADA401C06D1A1
:100D90000C9820B14FF0FF300FB0BDE8F08F5046F7
:100DA000FAE7E90701D10AF1010A064400200C9094
:100DB00054E60000CCCCCC0C007B00F080007047E7
:100DC000754600F031F8AE4605006946534620F0FE
:100DD0000700854618B020B5FFF76CFABDE8204043
:100DE0004FF000064FF000074FF000084FF0000BE7
:100DF00021F00701AC46ACE8C009ACE8C009ACE89A
:100E0000C009ACE8C0098D467047000010B500F07D
:100E10000FF8001D10BD00BF0D2300000446AFF306
:100E200000802046FFF732FA004870470006002095
:100E300000487047200600204FF0013C50F8042B7A
:100E400051F8043B9A4221D1A2EB0C03934313EADD
:100E5000CC1317D150F8042B51F8043B9A4215D10A
:100E6000A2EB0C03934313EACC130BD150F8042BE1
:100E700051F8043B9A4209D1A2EB0C03934313EAC5
:100E8000CC13DBD04FF00000704700BFD01A01BA7E
:100E9000B1FA81F101F0180122FA01F0CB40C1F161
:100EA0002001DBB2C0B2C01A2CFA01F3D11A91436F
:100EB00011EAC311E6D17047FEE70000014800F0D7
:100EC000CEB8000040050020014800F0C8B800007E
:100ED000A00500200D4902688A4201D20C4901E0B8
:100EE0000B492031D2B21423083AB2FBF3F2436C1F
:100EF00002F01F0223F00303194481640449803186
:100F0000C16401219140016570470000080402405E
:100F1000000802400179074A02EB81024265054A56
:100F20004432491E826501F01F0201219140C165D2
:100F300070470000FC08024030B5D0E913456560F9
:100F4000446D14B1D0E91645656090F8444004F052
:100F50001F050124AC40056C6C6004686360836805
:100F6000102B036803D099600068C26030BD9A609E
:100F70000068C16030BD704772B6FEE710B590F8EA
:100F8000253000210122022B03D00421C16301215D
:100F900022E003681C6824F00E041C60836C1C684B
:100FA00024F480741C6003681C6824F001041C6035
:100FB00090F84430046C03F01F0302FA03F36360FB
:100FC000D0E913345C60436D33B11C6824F4807441
:100FD0001C60D0E916345C6080F82520002280F87F
:100FE0002420084610BD70B590F82520002401216A
:100FF0002346022A07D00422C26380F8251080F815
:101000002430012429E00268156825F00E051560DA
:101010000268156825F001051560826C156825F4D5
:101020008075156090F84420056C02F01F0201FAEB
:1010300002F26A60D0E913255560426D32B115683D
:1010400025F480751560D0E91625556080F82510C7
:1010500080F82430816B01B18847204670BDF0B420
:10106000016C0C6801680D6890F8442002F01F06BE
:10107000042202FA06F3234211D06B070FD50B6846
:101080009B0603D40B6823F004030B6090F8441014
:1010900001F01F018A40016C4A60016B1DE00223D0
:1010A00003FA06F727424FF0000C4FF0010218D068
:1010B000AF0716D50C68A40605D40C6824F00A0402
:1010C0000C6080F8252090F8441001F01F018B403F
:1010D000016C4B6080F824C0C16A00291AD0F0BCB2
:1010E00008470823B340234214D02B0712D50B68BE
:1010F00023F00E030B6090F84410036C01F01F0105
:1011000002FA01F15960C26380F8252080F824C0FA
:10111000416BE2E7F0BC704770B504000CD02B4A7D
:1011200021681420914209D2294A0A44B2FBF0F006
:101130008000606427480AE0012070BD234A5242C3
:101140000A44B2FBF0F08000606420480838206454
:10115000022084F825000A6847F6F0708243D4E93B
:1011600002031843D4E904352B431843A3691843F9
:10117000E3691843236A1843104308602046FFF7C9
:10118000A9FEA0680025B0F5804F00D16560A16C74
:1011900020790860D4E9130141606068401E03288B
:1011A00008D82046FFF7B6FE606D0560D4E9160149
:1011B000416002E06565A565E565E563012084F8A9
:1011C000250084F82450002070BD0000080402406F
:1011D000F8FFFDBF0000024070B5044690F82400FF
:1011E000002501280CD0012084F8240094F8256003
:1011F0000020012E06D084F824000225284670BD68
:10120000022070BD022684F82560E063206806682D
:1012100026F0010606602046FFF78EFE206B0028B0
:101220002068016802D041F00E0106E021F00401BF
:1012300001602068016841F00A010160A06C01684A
:10124000C90303D5016841F480710160606D18B174
:10125000016841F4807101602068016841F001017A
:101260000160CBE770B5044600F038F90546601C14
:1012700002D004484068044400F030F9401BA0420A
:10128000FAD370BD040000202DE9F04FDFF8209262
:10129000002301260324A9F1040B85B00F2709F1CF
:1012A000040AABF1040EFAE006FA03F52A407CD0FA
:1012B00091F804C00CF0030CBCF1010F02D0BCF19A
:1012C000020F26D1D0F808C0CDF800C04FEA430C79
:1012D00004FA0CF8CDF810C0DDF800C02CEA080CB8
:1012E000CDF800C0D1F80C80DDF810C008FA0CF879
:1012F000DDF800C048EA0C08C0F80880D0F804C047
:101300002CEA050C0D79C5F300159D4045EA0C0546
:1013100045600D79ED43AD070ED0C5684FEA43082F
:1013200004FA08FC25EA0C05D1F808C00CFA08FC00
:101330004CEA050CC0F80CC00D7905F00305022D30
:1013400016D1DD0800EB850CCDF808C0DCF8208054
:101350005D074FEAD56C07FA0CF528EA05080D6918
:1013600005FA0CF5DDF808C045EA0805CCF8205070
:1013700005684FEA430CCDF808C004FA0CFC25EAD6
:101380000C0591F804C00CF00308DDF808C008FA59
:101390000CF848EA0508C0F800804D6815F4403F95
:1013A0007CD0444DD5F860C000E077E04CF0010CF3
:1013B000C5F860C02D6E23F0030C05F00105009503
:1013C0003D4D65440295AD684FEA837C4FEA1C7839
:1013D00007FA08FC25EA0C05B0F1904F06D0DFF8BB
:1013E000DCC0604505D14FF0010C20E04FF0000C4F
:1013F0001DE0DFF8CCC0604502D14FF0020C16E0D2
:10140000DFF8C0C0604502D14FF0030C0FE0DFF8F9
:10141000B8C0604502D14FF0040C08E0DFF8ACC062
:10142000604502D14FF0050C01E04FF0060C0CFABC
:1014300008FC4CEA050C029DC5F808C0D9F800501C
:10144000CC46D1F8048095435FEAC82800D51543FF
:10145000CCF80050DAF80050D446D1F80480954317
:101460005FEA882800D51543CCF80050DBF800501F
:10147000DC46D1F8048095435FEA883800D51543EF
:10148000CCF80050DEF80050F446D1F804809543C3
:101490005FEAC83800D51543CCF800505B1C0A68D9
:1014A00032FA03F57FF400AF05B0BDE8F08F00001D
:1014B0000804014000100240000001400004004800
:1014C00000080048000C00480010004800140048C4
:1014D0000AB18161704781627047000001488068ED
:1014E00070470000040000200248816842681144EF
:1014F000816070470400002010B50024032000F034
:1015000073F8002000F008F808B1012401E000F0B1
:1015100025F8204610BD000070B50E4E054600248B
:10152000706898B14FF47A71B1FBF0F00A4909681C
:10153000B1FBF0F000F060FD40B9102D06D20022A2
:101540002946501E00F030F8356000E001242046A6
:1015500070BD000004000020100000200A4882B086
:10156000016E41F001010166016E01F0010100917F
:10157000816D41F080518165806D00F08050009058
:1015800002B000F0A1B8000000100240002809DB02
:1015900000F01F02012191404009800000F1E0208D
:1015A000C0F8001170470000F0B40E4B1B680C46E9
:1015B000C3F30223C3F10705042D00D90425191D27
:1015C000072901D2002300E0DB1E012606FA05F1FF
:1015D000491E214099409E40761E16403143F0BC82
:1015E00001F03DBD0CED00E0064900F0070208687F
:1015F0004FF6FF03184040EA0220034A10430860F8
:10160000704700000CED00E00000FA052B492C4B60
:101610000A6832214A432B4940B1B0F5007F08687F
:1016200029D020F4C06040F480602CE00868C0F34A
:101630004120022804D051F8800F20F4807022E06D
:10164000D1F8800020F48070C1F88000086820F490
:10165000C06040F400700860B2FBF3F0401C00E092
:10166000401E4A69520501D50028F9D14869400554
:101670000AD503207047C0F34120022806D051F854
:10168000800F40F48070086000207047D1F880001F
:1016900040F48070C1F88000086820F4C06040F415
:1016A00000700860B2FBF3F0401C00E0401E4A6985
:1016B0005205DBD50028F9D1D8E700001000002042
:1016C00040420F00007000400248816841F48041B0
:1016D00081607047007000402DE9F84304460068BF
:1016E00000269D4D00035ED5A86D0027C00008D4DC
:1016F000A86D40F08050A865A86D012700F08050CB
:101700000090DFF85892D9F8001041F48071C9F8C0
:101710000010FFF7E3FE804606E000BFFFF7DEFEA5
:10172000A0EB080002282BD8D9F80000C005F5D599
:10173000D5F8900010F4407014D0216C814211D083
:10174000D5F89000D5F8901020F4407041F4803125
:10175000C5F89010D5F8901021F48031C5F890109C
:10176000C5F89000C00711D0FFF7B8FE804641F2DF
:10177000883907E0FFF7B2FEA0EB0801494501D91F
:1017800003260BE0D5F890008007F3D5D5F890003C
:10179000216C20F440700843C5F890001FB1A86D7B
:1017A00020F08050A8652078C00707D0D5F88800C1
:1017B000616820F003000843C5F88800207880079E
:1017C00007D5D5F88800A16820F00C000843C5F8BB
:1017D00088002078400707D5D5F88800E16820F018
:1017E00030000843C5F888002078000707D5D5F8F1
:1017F0008800216920F0C0000843C5F888002078DF
:10180000800607D5D5F88800616920F44060084358
:10181000C5F888002078400607D5D5F88800A1696A
:1018200020F440500843C5F888002078000607D50A
:10183000D5F88800E16920F440400843C5F88800E5
:101840002088C00507D5D5F88800216A20F44030EB
:101850000843C5F888002088800507D5D5F888009A
:10186000616A20F440200843C5F8880020884005BC
:101870000FD5D5F88800A16A20F440100843C5F8B8
:101880008800A06AB0F5801F03D1E86840F480109A
:10189000E860208800050FD5D5F88800E16A20F4BB
:1018A00040000843C5F88800E06AB0F5800F03D116
:1018B000E86840F48010E8602088C0040FD5D5F8AF
:1018C0008800216B20F040700843C5F88800206B29
:1018D000B0F1807F03D1E86840F48010E860208890
:1018E0004FF0006180040ED5D5F88800626B20F0BF
:1018F00040601043C5F88800606B884203D1E868F7
:1019000040F48010E860208840040ED5D5F88800A7
:10191000A26B20F040601043C5F88800A06B88429D
:1019200003D1E86840F48010E860208800040FD5F7
:10193000D5F88800E16B20F040500843C5F88800D6
:10194000E06BB0F1805F03D1E86840F48030E8607C
:101950003046BDE8F88300000010024000700040EF
:101960002DE9F0470E4605004FF0000725D0DFF8BF
:10197000AC81D8F8000000F00F00B0420CD2D8F8CB
:10198000001021F00F013143C8F80010D8F8000012
:1019900000F00F00B04210D12968614CC80741F235
:1019A000883A5AD06868DFF87C91032808D002286A
:1019B00020682DD0400500282CDB0120BDE8F087F1
:1019C00020688001F9D5E06800F00302E068C0F308
:1019D0000310401C032A19D0534A00BFB2FBF0F099
:1019E000E268C2F306225043E268C2F34162521C2D
:1019F0005200B0FBF2F0484517D9A06810F0F00F84
:101A00000CD0880711D5A86840B10EE0474AE5E739
:101A10008003D0E700F0B6F8484506D9A06820F06A
:101A2000F00040F08000A0608027A068696820F086
:101A300003000843A060FFF751FD814606E000BFA8
:101A4000FFF74CFDA0EB090151453AD8A068696841
:101A500000F00C00B0EB810FF2D12868810714D59B
:101A6000400703D5A06840F4E060A0602878000734
:101A700005D5A06820F4605040F4E060A060A06844
:101A8000A96820F0F000084304E0802F03D1A0688B
:101A900020F0F000A060D8F80010404601F00F01DF
:101AA000B14216D9016821F00F0131430160FFF7FF
:101AB00015FD074607E000BFFFF710FDC11B5145AC
:101AC00001D903207AE7D8F8000000F00F00B042F7
:101AD000F2D12878400705D5A068E96820F4E060D5
:101AE0000843A0602878000706D5A068296920F47B
:101AF000605040EAC100A06000F044F8A1680C4AC0
:101B0000C1F30311515C01F01F01C840094908608D
:101B100009480068BDE8F047FFF7FEBC002002401E
:101B20000010024000B4C4040024F40000366E012A
:101B300082310008100000200400002005480649FA
:101B400000688968054AC1F30221515C01F01F0158
:101B5000C840704710000020001002409231000879
:101B60000548064900688968054AC1F3C221515CED
:101B700001F01F01C8407047100000200010024013
:101B800092310008184910B58868C0F381021748DF
:101B9000012A0BD08A68164BC2F38102022A06D0B2
:101BA0008A68C2F38102032A03D0002010BD1846C0
:101BB00010BDCA6802F00304CA68C2F30312521CC3
:101BC000032C02D0B0FBF2F001E0B3FBF2F0CA68E4
:101BD000C968C2F306225043C1F34161491C490060
:101BE000B0FBF1F010BD0000001002400024F40032
:101BF00000366E012DE9F84304007AD02078F84DC4
:101C0000C00747D0A868E96800F00C0001F00301A4
:101C10000C2802D0082817D001E0032914D06068EE
:101C2000B0F5803F17D0B0F5A02F286817D020F46A
:101C300080302860286820F4802028606068E0B147
:101C4000FFF74CFC064614E02868800322D5606844
:101C50000028D2D01EE0286840F48030EDE740F440
:101C600080202860F7E700BFFFF738FC801B64285E
:101C700070D828688003F7D50CE0FFF72FFC0646E4
:101C800005E000BFFFF72AFC801B6428F0D8286815
:101C90008003F7D4207880074CD5A868E96800F065
:101CA0000C0001F003010C2802D004280DD001E043
:101CB00002290AD0E068002828682BD040F4807000
:101CC0002860FFF70BFC064619E02868400502D59E
:101CD000E068002891D06868217C20F0FE4040EA4E
:101CE00001606860BF480068FFF716FC002800D15B
:101CF00020E072E1FFF7F2FB801B0228B8D82868C9
:101D00004005F7D56868217C20F0FE4040EA01607C
:101D100068600FE020F480702860FFF7DFFB064664
:101D200005E000BFFFF7DAFB801B0228A0D8286877
:101D30004005F7D42078000729D560690028D5F838
:101D4000940013D040F00100C5F89400FFF7C6FBE3
:101D5000064606E090E000BFFFF7C0FB801B0228AC
:101D600086D8D5F894008007F6D510E020F0010061
:101D7000C5F89400FFF7B2FB064604E0FFF7AEFBA0
:101D8000801B022878D8D5F894008007F6D42078F4
:101D9000400761D5A86D0026C00008D4A86D40F0AA
:101DA0008050A865A86D012600F0805000908E48F4
:101DB0000168C90511D40168804641F48071016051
:101DC000FFF78CFB074604E0FFF788FBC01B0228E7
:101DD00052D8D8F80000C005F6D5A068012815D063
:101DE0000528D5F8900016D020F00100C5F8900025
:101DF000D5F8900020F00400C5F89000A06841F2EA
:101E00008838B8B1FFF76AFB07460EE0D5F89000B6
:101E100040F00100F0E740F00400C5F89000F5E75D
:101E2000FFF75CFBC11B414526D8D5F89000800721
:101E3000F6D50CE0FFF752FB074604E0FFF74EFB38
:101E4000C11B414518D8D5F890008007F6D41EB1C3
:101E5000A86D20F08050A8652078800629D5A0695B
:101E60000028D5F8980013D040F00100C5F898007C
:101E7000FFF734FB064606E075E000BFFFF72EFBD8
:101E8000801B02286FD8D5F898008007F6D510E09F
:101E900020F00100C5F89800FFF720FB064604E09B
:101EA000FFF71CFB801B02285DD8D5F8980080073F
:101EB000F6D4E069F0B3A968C1F3810103295DD0CC
:101EC0000228286820F08070286003D0FFF706FB06
:101ED00004464BE0FFF702FB064604E0FFF7FEFA7C
:101EE000801B02283FD828688001F7D4F4E9080154
:101EF0006FF00F0202EB01110843218A52044908D6
:101F000002EB4151A26841EA02210843217D4FF0D2
:101F10007E42490802EB41610843217B40EAC160EF
:101F2000E968324A11400843E860286840F0807050
:101F3000286000E05EE0E86840F08070E860FFF74D
:101F4000CDFA044605E000BFFFF7C8FA001B0228DF
:101F500009D828688001F7D54CE000BFFFF7BEFA2A
:101F6000001B022802D90320BDE8F88328688001FD
:101F7000F4D4E8681E490840E8603BE00128F3D04B
:101F8000E868226A00F00301914226D1616A00F0FC
:101F9000F0020901103991421FD1A26A00F4FE41FA
:101FA000B1EB022F19D194F82C2000F07841B1EB5D
:101FB000C26F12D1218E00F4C00249084905A1F573
:101FC0000011914209D194F8341000F0C060490822
:101FD0004906A1F1007181420CD00120C4E7000044
:101FE0000010024004000020007000400C809F019F
:101FF000FCFFEEFE0020B7E710B5401EB0F1807F79
:1020000001D3012010BD4FF0E02460610F21601763
:1020100001F025F80020A06107202061002010BDFC
:1020200090F88410012918D0012180F8841024210F
:10203000C0F8881001680A680B6823F001030B6080
:1020400022F0005100224266036819602021C0F886
:10205000881080F88420104670470220704710B521
:102060000446D0F88C00202801D0022010BD61B1B8
:102070005AB10120E06600202067204600F050FFA2
:102080000028F3D1E16E012901D0012010BD2268A2
:1020900010211162226852E8001F41F0100142E84D
:1020A0000013002BF6D110BD70B50D460E498842C5
:1020B00018D1002180F884100C4C4FF40076314682
:1020C0002580A01CFEF749FB2A4604F202210D469A
:1020D000A01CFEF7FDFA32462946BDE870400248D2
:1020E000FFF7BDBF70BD0000AC040020140000204D
:1020F000704770B5044690F8840001281DD0012077
:1021000084F884002420C4F88800206805680268E8
:1021100022F0010202602068826822F060620A43B5
:102120008260204600F01EFC206805602020C4F874
:102130008800002084F8840070BD022070BD70B556
:10214000044690F8840001281DD0012084F8840002
:102150002420C4F8880020680568026822F0010283
:1021600002602068826822F060420A438260204652
:1021700000F0F8FB206805602020C4F888000020EB
:1021800084F8840070BD022070BD704770477047AE
:102190002DE9F04103680446D86919689A6840F649
:1021A0000F0528424FF000054FF002060AD18706BE
:1021B0007ED501F0200702F0805C57EA0C0777D04B
:1021C000616F3AE1B24FDFF8CCC2174001EA0C0C64
:1021D00057EA0C0C6CD05FEAC07C0CD05FEAC15CA3
:1021E00009D54FF0010CC3F820C0D4F8903043F06B
:1021F0000103C4F89030830709D5D30707D02368BB
:102200001E62D4F8903043F00403C4F890304307C2
:102210000AD5D30708D0266804233362D4F8903057
:1022200043F00203C4F8903003070CD501F02003FB
:102230003B4308D0266808233362D4F8903043F03B
:102240000803C4F8903003050BD54B0109D5266867
:102250004FF400633362D4F8903043F02003C4F8A5
:102260009030D4F89030002B3DD0800609D501F095
:10227000200002F08051084303D0616F09B120466D
:102280008847D4F8900021688968490602D410F084
:10229000280F2AD0204600F0C7FC2068806840063E
:1022A0001ED52068083050E8001F21F0400100E0F2
:1022B00021E040E80012002AF3D1D4F8800078B180
:1022C00075498163D4F88000FEF78DFE00280AD09E
:1022D000D4F88000816B00E02046BDE8F04108475B
:1022E0002046FFF754FFBDE8F0812046FFF74FFF7F
:1022F000C4F89050F7E7D4F86CC02027BCF1010F68
:102300007ED15FEAC06C7BD55FEAC16C78D51020C6
:10231000186220688068400645D5D4F880100868A7
:1023200040680004000CDED0B4F85C208242DAD9A8
:10233000A4F85E000868006880062CD4216851E883
:10234000000F20F4807041E80002002AF6D12068D6
:10235000083050E8001F21F0010140E80012002A77
:10236000F5D12068083050E8001F21F0400140E816
:102370000012002AF5D1C4F88C70E566206850E898
:10238000001F21F0100140E80012002AF6D1D4F815
:102390008000FEF7F3FD2667B4F85C00B4F85E1029
:1023A000401A81B230E0B4F85C00B4F85E10401A14
:1023B00081B2B4F85E00002895D0002993D022683D
:1023C00052E8000F20F4907042E80003002BF6D191
:1023D0002F4BDB432068083050E8002F1A4040E8BC
:1023E000002CBCF1000FF5D1C4F88C70E566656770
:1023F000226852E8000F20F0100042E8000300E0DD
:1024000006E0002BF4D126672046FFF74DFE6AE771
:10241000C60209D5560207D54FF48010186220462F
:10242000BDE8F041FFF7B2BE03060AD501F0800314
:1024300002F40002134304D0A16F00297FF44CAFD3
:1024400051E7420611D54A060FD52046026852E8E8
:10245000001F21F0400142E80013002BF6D1C0F824
:102460008870856700F05DF93DE7020206D54A00F5
:1024700004D52046BDE8F041FFF787BEC001C6D5B0
:102480000029C4DA2046BDE8F041FFF731BE000064
:1024900001000010200100041D2B000810B50400ED
:1024A00003D0D4F8880010B107E0012010BD00204F
:1024B00084F88400204600F027F82420C4F888001F
:1024C0002068016821F001010160A06A10B1204676
:1024D00000F06AFA204600F0E9FB0128E6D0206807
:1024E000416821F4904141602068816821F02A010F
:1024F00081602068016841F0010101602046BDE86B
:10250000104000F0B5BA00002DE9F04198B0054642
:10251000142111A8FEF743F944216846FEF73FF95C
:102520004D4928684D4F02260024884226D120209C
:10253000059400906846FFF7CFF808B1FEF71CFD40
:10254000F86D40F00100F865F86D00F0010016909C
:10255000F86C40F00100F864F86CCDE9126400F00A
:10256000010016900C20CDE91440119011A94FF0F4
:102570009040FEF789FE18B0BDE8F08138498842E6
:10258000F9D10820009004946846FFF7A5F808B137
:10259000FEF7F2FCB86D40F40020B865B86D00F4A9
:1025A00000201690F86C40F00400F864F86C0527E1
:1025B00000F0040016904FF48060CDE91264DFF85B
:1025C000A480CDE91447119011A94046FEF75CFEA6
:1025D0004FF40060CDE9110613AA012082E89100B2
:1025E00011A94046FEF750FE204E1F48802730605C
:1025F0001E20C6E90104C6E903477461B461F461B1
:1026000030463462FEF788FD08B1FEF7B5FCC5F828
:102610008060B562154E14486036143030601F205B
:10262000706006F10801102081E891007461B461C6
:10263000F46130463462FEF76FFD08B1FEF79CFC92
:10264000EE67002211463420B562FEF7ADFF34205C
:10265000FEF79CFF8FE70000008000400010024062
:10266000004C0040000800480800024040050020DF
:10267000704770472DE9F8430446D0F88800984623
:1026800016460D46202802D00220BDE8F883A5B1E9
:102690009EB10020C4F890002120C4F888001834AE
:1026A000FEF71CFFA6878146E68754F8100C20270A
:1026B000183CB0F5805F02D003E00120E5E7206917
:1026C00010B12E46002510E000260EE080212046A5
:1026D00000F07AFCC0B9DEB116F8010B21688862FF
:1026E000B4F85600401EA4F85600B4F856004B4605
:1026F0004FF00002CDF800800028E7D14FF04001F4
:10270000204600F061FC40B1C4F888700320BCE7AB
:1027100035F8020BC0F30800E0E7C4F88870002029
:10272000B3E77047FEE70000114808B5816C41F03F
:1027300004018164816C01F004010091816C41F01D
:1027400001018164806C002200F0010000901146BC
:102750000B20FEF729FF0B20FEF718FF0022114681
:102760000C20FEF721FFBDE808400C20FEF70EBF4D
:102770000010024030B587B014216846FEF70FF80C
:102780001F48C16C41F00401C164C16C01F0040137
:102790000591C16C41F02001C164C16C01F02001C0
:1027A0000591C16C41F00101C164C16C01F00101EE
:1027B0000591C16C41F00201C164C06C4FF09045BD
:1027C00000F002000590002220212846FEF780FE3E
:1027D0004FF4005000904FF488100024CDE901041C
:1027E00069460848FEF750FD202000900120CDE901
:1027F0000104694628460394FEF746FD07B030BD44
:102800000010024000080048174810B51549016043
:102810004FF4E1314160002181600C22C160C0E9C8
:1028200004128161016241628162FFF737FE08B1E3
:10283000FEF7A2FB00210C48FFF781FC08B1FEF770
:102840009BFB00210848FFF754FC08B1FEF794FBFE
:102850000548FFF7E5FB002803D0BDE81040FEF770
:102860008BBB10BD0080004018040020184810B534
:10287000164901604FF416514160002181600C221D
:10288000C160C0E904128161C1610162416281627B
:10289000FFF704FE08B1FEF76FFB00210C48FFF7BD
:1028A0004EFC08B1FEF768FB00210948FFF721FC48
:1028B00008B1FEF761FB0648FFF7B2FB002803D022
:1028C000BDE81040FEF758BB10BD0000004C0040B2
:1028D000AC040020FEE7FEE770477047FEF704BE39
:1028E00000B593B038216846FDF759FF14210EA8B2
:1028F000FDF755FF0020FEF789FE0220C10103917C
:10290000402104910421CDE9080100905521CDE931
:102910000A1007900C900D906846FFF76BF908B10C
:1029200072B6FEE70F200E9003200F90002010904B
:102930001190129004210EA8FFF712F8002801D080
:1029400072B6FEE713B000BD0248016841F47001A1
:102950000160704788ED00E00148FFF719BC0000F6
:10296000AC04002030B5416EB9B10268916892683C
:10297000C1F342610B4B520F9C5CE50003F108046C
:10298000A25CB5FBF2F2A0F86A205A5C615CD2004E
:10299000B2FBF1F1A0F8681030BD0121A0F86A1077
:1029A000F8E700007231000890F82810090706D5F2
:1029B00001684A68836B22F400421A434A6090F827
:1029C0002810C90706D001684A68C36A22F4003299
:1029D0001A434A6090F82810890706D501684A68AA
:1029E000036B22F480321A434A6090F8281049079A
:1029F00006D501684A68436B22F480221A434A6074
:102A000090F82810C90606D501688A68C36B22F4BD
:102A100080521A438A6090F82810890606D501680A
:102A20008A68036C22F400521A438A6090F82810D6
:102A3000490611D501684A68436C22F480121A4392
:102A40004A60416CB1F5801F06D101684A68836C09
:102A500022F4C0021A434A6090F82810090606D5ED
:102A600001684A68C06C22F4002202434A60704741
:102A70002DE9F84300260446C0F89060FEF72EFDCD
:102A80008046206800684FF0200500076FF07E4701
:102A900013D54346002229042046009700F094FAFB
:102AA00058B1216851E8000F20F0800041E8000291
:102AB000002AF6D1C4F8885021E020680068400759
:102AC00022D5434600224FF480012046009700F0B3
:102AD0007BFAC8B1216851E8000F20F4907041E8FA
:102AE0000002002AF6D12068083050E8001F21F0CB
:102AF000010140E80012002AF5D1C4F88C5084F896
:102B000084600320BDE8F883C4F88850C4F88C5072
:102B100044F86C6F666026760020F3E710B5806A93
:102B20000021A0F85E10A0F85610FFF730FB10BD92
:102B300070B5846AD4F88800D4F88C50216889680C
:102B40004FF00006090606D5212804D1A4F85660E6
:102B5000204600F093F820688068400606D5222DB4
:102B600004D1A4F85E60204600F05EF8D4F890002E
:102B700040F01000C4F890002046FFF708FB70BD3D
:102B800010B50146806A096809684FF0000289069D
:102B90002DD4A0F85E20036853E8001F21F4807153
:102BA00043E80014002CF6D10168083151E8003FD9
:102BB00023F0010341E80034002CF5D1016808310D
:102BC00051E8003F23F0400341E80034002CF5D1E8
:102BD0002021C0F88C10C16E012908D1016851E88C
:102BE000003F23F0100341E80034002CF6D10267C7
:102BF000C16E012902D0FFF73BFD10BDB0F85C109B
:102C0000FFF752FA10BD10B5806A01210167C16E4D
:102C1000012902D0FFF72DFD10BDB0F85C10490866
:102C2000FFF742FA10BD000010B5026852E8001F1D
:102C300021F4907142E80013002BF6D10E4B02688C
:102C4000083252E8001F194042E80014002CF6D167
:102C5000C16E012908D1016851E8002F22F010024D
:102C600041E80023002BF6D12021C0F88C10002170
:102C7000C166416710BD0000FEFFFFEF026852E829
:102C8000001F21F0C00142E80013002BF6D10168BB
:102C9000083151E8002F22F4000241E80023002B04
:102CA000F5D12021C0F88810704700002DE9F041CF
:102CB0000446016880682269E3691043626900255F
:102CC0001A431043DFF82CC20A688B4B1A400243A8
:102CD0000A6020684168E26821F440511143416074
:102CE0002168A069614501D0226A10438A68834B3C
:102CF0001A4002438A602068C16A626A21F00F01AB
:102D00001143C1627E4923687E488B420DD1D0F8C1
:102D1000880010F0030006D0012855D0022842D0C8
:102D200003283FD152E001203DE077498B420BD18F
:102D3000D0F8880010F00C0035D0042833D00828D3
:102D400040D00C282ED141E070498B420BD1D0F8F5
:102D5000880010F0300026D0102835D0202831D03F
:102D600030281FD132E06A498B420BD1D0F888005D
:102D700010F0C00017D0402826D0802822D0C028CC
:102D800010D123E063450DD1D0F8880010F44060E5
:102D900009D0B0F5806F17D0B0F5006F12D0B0F544
:102DA000406F13D010205B495B4F00264FF4004268
:102DB00063453BD160B1022813D004280BD008280A
:102DC00072D10DE00220EEE70420ECE70820EAE7EC
:102DD000FEF7B4FE01E0FEF7D5FE010001D17CE074
:102DE0001146606A37F810206768B1FBF2F007EB14
:102DF0004703834270D8B0EB073F6DD800230846E5
:102E00001946FDF76AFA090241EA106102027808E0
:102E1000101871413A460023FDF75FFA3F4AA0F5CA
:102E20004071914258D82168C86056E0E3694FF676
:102E3000EF7893422CD109284ED2DFE800F0050844
:102E4000114D0D4D4D4D1000FEF778FE01E0FEF7DF
:102E500087FE010004D140E0FEF794FEF9E7114639
:102E6000606A37F81000B1FBF0F04100606801EBD8
:102E70005001B1FBF0F0A0F1100141452CD84FF604
:102E8000F0710140C0F3420001432068C16024E0BA
:102E9000092821D2DFE800F0050912200E202020A9
:102EA0001100FEF74BFE02E016E0FEF759FE0100AE
:102EB00004D112E0FEF766FEF9E71146606A37F8C2
:102EC0001000B1FBF0F1606801EB5001B1FBF0F0D4
:102ED000A0F1100141450AD901250120A4F86A009A
:102EE00024F8680F2846E6602661BDE8F08180B2CC
:102EF00099E7000000800040F369FFCFFFF4FF1165
:102F000000380140001002400044004000480040EA
:102F1000004C00400024F4005A310008FFFC0F0070
:102F200070B58165A0F85C2000210446C0F89010BF
:102F30002220C4F88C00D4F88000F0B11F4BC3628B
:102F4000D4F880301E481863D4F880301D48586388
:102F5000D4F8800013468163A56D21682A46243188
:102F6000D4F88000FEF738F938B11020C4F890008A
:102F70002020C4F88C00012070BD206940B1216878
:102F800051E8000F40F4807041E80002002AF6D1B9
:102F90002068083050E8001F41F0010140E80012AD
:102FA000002AF5D12068083050E8001F41F04001A8
:102FB00040E80012002AF5D1002070BD812B0008E6
:102FC000072C0008312B00082DE9F04799461746D9
:102FD0000D4604464FF00008089E33E0701C31D0C7
:102FE000FEF77CFAA0EB0900B04218D8BEB1206809
:102FF0000168490726D5802D24D0402D22D0C169F3
:10300000C94309070DD4082505622046FFF70CFEC9
:10301000C4F8905084F884800120BDE8F087032034
:10302000FBE7C069C04300050CD421684FF4006081
:1030300008622046FFF7F8FD2020C4F8900084F8CD
:103040008480ECE72068C06935EA000004D00020E5
:10305000B842C3D00020E0E70120F9E7FEE7090706
:10306000090E002804DB00F1E02080F8001470470E
:1030700000F00F0000F1E02080F8141D7047704749
:1030800013B50223012269460248FFF7F3FA0098BC
:103090001CBD0000AC040020ADF5047DFEF72CFA49
:1030A000FFF71EFCFFF766FBFFF73EFBFFF7ACFBED
:1030B000FFF7DCFB164C00264FF400754FF47A78CE
:1030C00004F202272088D0B182AB81AA11A1A01CF2
:1030D000FDF73AFA8298819B401C82905B1C00901D
:1030E00081930CA2294601A8FDF77AF901A90BA04A
:1030F000FDF76AF926802946A01CFDF72EFB404605
:10310000FEF7B0F82A4639460548FEF7A8FFD9E78A
:103110001400002025642025640000002573200091
:10312000AC04002010B500290AD00878002807D088
:1031300005487844FDF780FE002801D0002010BD2E
:103140000248784410BD00008A00000082000000A0
:103150004FF04070E1EE100A7047010002000400D9
:10316000060008000A000C0010002000400080004B
:103170000001010101030701000008040204080125
:103180000101000000000000000001020304060726
:10319000080900000000010203040000CC3200080E
:1031A000000000201400000014020008E0320008B3
:1031B000140000204C0C0000300200081001000038
:1031C00043000000F8FFFFFF004040404040404007
:1031D00040404141414141404040404040404040EA
:1031E000404040404040404040050202020202028E
:1031F00002020202020202020220202020202020DD
:1032000020202002020202020202909090909090F0
:1032100010101010101010101010101010101010AE
:103220001010101002020202020288888888888822
:10323000080808080808080808080808080808080E
:103240000808080802020202400000000000000016
:10325000000000000000000000000000000000006E
:10326000000000000000000000000000000000005E
:10327000000000000000000000000000000000004E
:10328000000000000000000000000000000000003E
:10329000000000000000000000000000000000002E
:1032A000000000000000000000000000000000001E
:1032B000000000000000000000000000000000000E
:1032C00000000000000000000000000000000000FE
:1032D0001000000001000000000000000024F400C5
:04000005080001D915
:00000001FF
