:020000040800F2
:10000000380B002099020008D51C00084D1B000881
:10001000D11C00088704000821250008000000000A
:10002000000000000000000000000000451D000866
:100030008B04000800000000D91C0008C11D000846
:10004000B3020008B3020008B3020008B3020008BC
:10005000B3020008B3020008B3020008B3020008AC
:10006000B3020008B3020008B3020008B30200089C
:10007000B3020008B3020008B3020008B30200088C
:10008000B302000800000000B3020008B302000839
:10009000B3020008B3020008B3020008B30200086C
:1000A000B3020008B3020008B3020008B30200085C
:1000B000B3020008B3020008B3020008B30200084C
:1000C000B3020008B3020008B3020008B30200083C
:1000D000B3020008B3020008B3020008B30200082C
:1000E000B3020008B3020008B3020008B30200081C
:1000F000B3020008B3020008B302000800000000C9
:1001000000000000B302000800000000B302000875
:10011000B302000800000000B3020008B3020008A8
:10012000B3020008B3020008B3020008B3020008DB
:10013000B30200080000000000000000B302000845
:10014000B3020008B3020008000000000000000035
:10015000000000000000000000000000000000009F
:10016000000000000000000000000000B3020008D2
:10017000B3020008000000000000000000000000C2
:1001800000000000B30200080000000000000000B2
:10019000000000000000000000000000000000005F
:1001A0000000000000000000B3020008B3020008D5
:1001B000B3020008B3020008B30200080000000008
:1001C00000000000B3020008000000000000000072
:1001D000B3020008B302000800F002F800F04CF887
:1001E0000AA090E8000C82448344AAF10107DA4592
:1001F00001D100F041F8AFF2090EBAE80F0013F098
:10020000010F18BFFB1A43F001031847C423000075
:10021000E42300000A4410F8014B14F00F0508BF56
:1002200010F8015B240908BF10F8014B6D1E05D0C2
:1002300010F8013B6D1E01F8013BF9D1641E03D09B
:10024000641E01F8015BFBD19142E4D370470000CA
:100250000023002400250026103A28BF78C1FBD8CF
:10026000520728BF30C148BF0B6070471FB502F06E
:1002700089F91FBD10B510BD00F0CFF81146FFF78A
:10028000F5FF02F06BF900F0EDF803B4FFF7F2FFB1
:1002900003BC00F0F1F80000094880470948004716
:1002A000FEE7FEE7FEE7FEE7FEE7FEE7FEE7FEE726
:1002B000FEE7FEE704480549054A064B7047000083
:1002C000351E0008D901000838050020380B002031
:1002D000380700203807002053EA020C00F069803C
:1002E0002DE9F04B4FF00006002B1FBFB3FA83F54A
:1002F00003FA05F424FA05F65E4012BF1643B2FA7B
:1003000082F502FA05F4C5F120051EBF22FA05FCAC
:1003100044EA0C04203556EA044C4FEA144418BF52
:10032000641C4FF000084FF00009904271EB030C81
:1003300039D3002919BFB1FA81F701FA07F6B0FAEB
:1003400080F700FA07F6C7F120071EBF20FA07FC66
:1003500046EA0C062037B6FBF4FCA7EB0507103F76
:1003600007F01F0BCBF120060CFA0BFB2CFA06F65C
:1003700044BFB3460026202FA4BF5E464FF0000BBB
:100380005BEA060C08BF4FF0010B19EB0B09ABFB46
:10039000027C48EB0608C01B06FB02CC0BFB03CC1F
:1003A00071EB0C01C1E70B46024641464846BDE8E9
:1003B000F08B13B54FF000004FF00001AFF3008059
:1003C000BDE81C4070474FF0000200B5134694464C
:1003D0009646203922BFA0E80C50A0E80C50B1F19D
:1003E0002001BFF4F7AF090728BFA0E80C5048BFB1
:1003F0000CC05DF804EB890028BF40F8042B08BF4F
:10040000704748BF20F8022B11F0804F18BF00F84A
:10041000012B7047704770477047754600F028F809
:10042000AE4605006946534620F00700854618B0E1
:1004300020B5FFF73FFFBDE820404FF000064FF02A
:1004400000074FF000084FF0000B21F00701AC4609
:10045000ACE8C009ACE8C009ACE8C009ACE8C00928
:100460008D4670470446AFF300802046FFF70DFF2E
:1004700000487047D804002001491820ABBEFEE7B1
:1004800026000200704700BFFEE7704772B600BF4B
:10049000FEE700002DE9F84F04460D461646002001
:1004A000009004B115B90120BDE8F88FE869012872
:1004B00000D100BFA868042800D100BF00BF607948
:1004C000012801D10220EFE70120607100BF022066
:1004D0002071A868042859D100F0CEFA8246E6B906
:1004E00011E000F0C9FAA0EB0A0001280BD920683E
:1004F000406B00F4004030B1206940F008002061FA
:1005000003202071D0E72068406B00F400400028F1
:10051000E7D1686A216808641BE011E000F0ACFADA
:10052000A0EB0A0001280BD92068406B00F00040C6
:1005300030B1206940F00800206103202071B3E74A
:100540002068406B00F000400028E7D1686A21680D
:1005500048642068806C06F0100240F2FF31914040
:10056000884306F01002A96A914008432168886414
:100570002068C06C06F01002FF219140884306F00D
:100580001002E96A914008432168C864E8690128BB
:100590000FD12068876B06F010011F208840874329
:1005A000D5F8208006F0100008FA00F00743206814
:1005B00087632068C76B06F01001072088408743D7
:1005C000A869012802D14FF000090CE0A8690228AF
:1005D00002D14FF0010906E0686910B94FF0010936
:1005E00001E04FF000096969A868084340EA09087A
:1005F00006F010014FF48070884087432879012865
:1006000001D1000200E0002040EA080806F01001D5
:100610004FF40070884087436879012801D1400277
:1006200000E0002040EA080827F440472868022834
:100630000FD100F043FE83462C498B4502D947F485
:10064000004708E02A48834502D947F4804702E082
:1006500001E02868074306F0100108FA01F007439B
:100660002068C7632068006806F010024FF48041DC
:1006700091408843216808602068076806F01001EF
:1006800040F6FE7088408743D5F80C8006F01001D4
:1006900008FA01F00743206807602068006806F048
:1006A0001002C0219140884321680860287BC0F374
:1006B0008308287CC0F3830048EA00282068006E85
:1006C00006F0100240F60F719140884306F01001C9
:1006D00008FA01F10843216808660120207100BF73
:1006E0000020607100BF0098DEE600000068890904
:1006F00000B4C40410B504460CB9012010BD207923
:1007000020B900206071204600F008F80220207116
:1007100000202061012020710020EFE710B586B095
:100720000446142101A8FFF74EFE164920688842AE
:1007300025D100BF1448C06C40F480301249C86411
:100740000846C06C00F48030009000BF00BF00BFBE
:100750000846C06C40F00100C8640846C06C00F058
:100760000100009000BF00BF102001900320029004
:100770000020039001A94FF0904000F091F806B0DE
:1007800010BD0000000800500010024078B504467B
:10079000002000900CB9012078BD2068C06B01F0EA
:1007A00010064FF48075B540284000B900BF20689E
:1007B000009029B902F10800009D2844009004E04F
:1007C00002F11400009D284400900098036000206E
:1007D000E2E7000018B502460AB9012018BD00BFC3
:1007E0005079012801D10220F8E70120507100BFA3
:1007F000022010711068006801F010040123A3406A
:100800001843136818601A4800681A4BB0FBF3F0DD
:10081000401C009002E00098401E009000980028C4
:10082000F9D161B91068006800F03E00022816D1C5
:100830001068406840F00100136858600FE01068CD
:10084000006800F4781301F010040220A0408342F5
:1008500005D11068406840F002001368586001201C
:10086000107100BF0020507100BF00BFB6E700004C
:100870002C040020400D030070B5044600F0FCF885
:1008800006462546681C10B104480068054400BFB0
:1008900000F0F2F8801BA842FAD370BD28040020B3
:1008A00078B502460B460021CAE001268E401D683D
:1008B00005EA0604002C73D01D7905F00305012D0F
:1008C00004D01D7905F00305022D13D190684E0068
:1008D0000325B540A8434E00DD68B540284390602D
:1008E000506801258D40A8431D79C5F300158D4042
:1008F000284350601D7905F00305032D09D0D06809
:100900004E000325B540A8434E009D68B5402843DE
:10091000D0601D7905F00305022D13D1CE0802F138
:10092000200555F826004D07EE0E0F25B540A843CB
:100930004E07F60E1D69B5402843CE0802F120058A
:1009400045F8260010684E000325B540A8431D79E0
:1009500005F003054E00B540284310605D6805F4BE
:100960004035002D6BD000BF384D2D6E45F0010590
:10097000364E356635462D6E05F00105009500BFF3
:1009800000BF4FEAB6358E0855F826008D072E0FAA
:100990000F25B540A843B2F1904F02D100251AE0CF
:1009A0004DE02B4DAA4201D1012514E0294DAA4268
:1009B00001D102250FE0284DAA4201D103250AE00A
:1009C000264DAA4201D1042505E0254DAA4201D1B8
:1009D000052500E006258E07360FB5402843214D3A
:1009E0008E0845F82600204D2868A0435D6805F470
:1009F000801505B120431C4D28602D1D2868A0439B
:100A00005D6805F4001505B12043174D2D1D2860C4
:100A1000154D2D1F2868A0435D6805F4003505B10C
:100A20002043114D2D1F28602D1F2868A0435D68AD
:100A300005F4803505B120430B4D083D2860491C65
:100A40001D68CD40002D7FF430AF78BD001002400E
:100A50000004004800080048000C0048001000484E
:100A60000014004808000140080401400AB18161F7
:100A700000E0816270470000014800687047000094
:100A8000200400200348006803490968084401491C
:100A900008607047200400202804002010B50024BE
:100AA000032000F097F8002000F008F808B10124B6
:100AB00001E000F02FF8204610BD000070B504469C
:100AC000002511480068D8B10F4800684FF47A71CA
:100AD000B1FBF0F00D490968B1FBF0F6304600F0CB
:100AE00011FF58B9102C07D200222146501E00F0E9
:100AF00033F80748046004E0012502E0012500E026
:100B00000125284670BD0000280400202C04002088
:100B10002404002008B500BF0E48006E40F001001C
:100B20000C4908660846006E00F00100009000BF06
:100B300000BF00BF0846806D40F0805088650846C1
:100B4000806D00F08050009000BF00BF00F0E2F820
:100B500008BD0000001002402DE9F05F80460D4600
:100B6000164601F0DFFC074639462A46334601F0B7
:100B70000700C0F1070ABAF1040F02D94FF0040AC6
:100B800001E0C0F1070AD14600F1040ABAF1070FEB
:100B900002D24FF0000A01E0A0F1030AD4464FF060
:100BA000010A0AFA09FAAAF1010A0AEA020A0AFA89
:100BB0000CFA4FF0010B0BFA0CFBABF1010B0BEA3B
:100BC000030B4AEA0B042146404601F0B3FCBDE8A2
:100BD000F09F000000BF00F00702064B19684FF6B7
:100BE000FF031940044B0B4343EA0221014B1960F8
:100BF00000BF70470CED00E00000FA0502468ABB1A
:100C00004148006800F4C060B0F5806F2BD13E48C9
:100C10008030006820F480703B4BC3F88000184699
:100C2000006820F4C06040F4007018603748006825
:100C300032235843364BB0FBF3F0411C00E0491E11
:100C40003148406900F48060B0F5806F01D100291F
:100C5000F5D12D48406900F48060B0F5806F51D126
:100C60000320704708E028488030006820F4807036
:100C7000254BC3F8800045E0B2F5007F3AD1224809
:100C8000006800F4C060B0F5806F2AD11E48803043
:100C9000006840F480701C4BC3F880001846006860
:100CA00020F4C06040F400701860184800683223D7
:100CB0005843174BB0FBF3F0411C00E0491E1248AB
:100CC000406900F48060B0F5806F01D10029F5D152
:100CD0000D48406900F48060B0F5806F12D10320A8
:100CE000BFE709488030006840F48070064BC3F8C5
:100CF000800007E00448006820F4C06040F4806091
:100D0000014B18600020ACE7007000402C0400206C
:100D100040420F000348806840F4804001498860E9
:100D200070470000007000402DE9F843044600279A
:100D3000B846206800F40020B0F5002F73D1B94602
:100D4000D348806D00F0805078B900BFD048806DE6
:100D500040F08050CE4988650846806D00F0805094
:100D6000009000BF00BF4FF00109CA48006840F47E
:100D70008070C8490860FFF77FFE064606E0FFF76F
:100D80007BFE801B022801D9032705E0C1480068CB
:100D900000F480700028F2D000BF002F46D1BC487C
:100DA0009030006800F44075CDB1206CA84216D098
:100DB000B7489030006820F44075B548D0F89000EE
:100DC00040F48030B249C1F890000846D0F8900055
:100DD00020F48030C1F890000846C0F8905005F02B
:100DE0000100A0B1FFF748FE064608E0FFF744FE09
:100DF000801B41F28831884201D9032706E0A448CC
:100E00009030006800F002000028EFD000BF5FB90A
:100E10009F489030006820F44070216C08439C4942
:100E2000C1F8900003E00CE0B84600E0B846B9F124
:100E3000010F05D19648806D20F080509449886557
:100E400000BF207800F0010048B191488830006868
:100E500020F00300616808438D49C1F888002078BC
:100E600000F00200022809D189488830006820F08B
:100E70000C00A16808438649C1F88800207800F07A
:100E80000400042809D182488830006820F030002E
:100E9000E16808437E49C1F88800207800F0080026
:100EA000082809D17A488830006820F0C0002169FC
:100EB00008437749C1F88800207800F020002028F6
:100EC00009D173488830006820F4406061690843A4
:100ED0006F49C1F88800207800F04000402809D10F
:100EE0006B488830006820F44050A1690843684985
:100EF000C1F88800207800F08000802809D164487B
:100F00008830006820F44040E16908436049C1F836
:100F10008800208800F48070B0F5807F09D15C489B
:100F20008830006820F44030216A08435849C1F8ED
:100F30008800208800F40070B0F5007F09D1544883
:100F40008830006820F44020616A08435049C1F8A5
:100F50008800208800F48060B0F5806F13D14C4881
:100F60008830006820F44010A16A0843484988315D
:100F70000860A06AB0F5801F05D14548C06840F4FC
:100F800080104349C860208800F40060B0F5006F0D
:100F900013D13F488830006820F44000E16A0843DC
:100FA0003B4988310860E06AB0F5800F05D13848C8
:100FB000C06840F480103649C860208800F4805032
:100FC000B0F5805F13D132488830006820F040705F
:100FD000216B08432E4988310860206BB0F1807F77
:100FE00005D12B48C06840F480102949C86020888A
:100FF00000F40050B0F5005F13D125488830006838
:1010000020F04060616B0843214988310860606BC3
:10101000B0F1006F05D11E48C06840F480101C4933
:10102000C860208800F48040B0F5804F13D1184884
:101030008830006820F04060A16B08431449883173
:101040000860A06BB0F1006F05D11148C06840F492
:1010500080100F49C860208800F40040B0F5004FB0
:1010600013D10B488830006820F04050E16B0843F2
:10107000074988310860E06BB0F1805F05D1044812
:10108000C06840F480300249C8604046BDE8F8833B
:1010900000100240007000402DE9F04104460D466A
:1010A0004FF0000814B90120BDE8F0817D480068C8
:1010B00000F00F00A8420ED27A48006820F00F001E
:1010C0002843784908600846006800F00F00A842ED
:1010D00001D00120E8E7207800F00100002864D06A
:1010E0006068032823D17048006800F0007008B9D8
:1010F0000120D9E700F0F2FD06466C48864237D958
:101100006948806800F0F00030B1207800F00200FB
:1011100002282DD1A06858BB6348806820F0F000F9
:1011200040F08000604988604FF0800820E06068EF
:10113000022806D15C48006800F4003040B9012064
:10114000B2E75948006800F4806008B90120ABE7B5
:1011500000F0DEF806465548864209D952488068B4
:1011600020F0F00040F080004F4988604FF0800888
:101170004D48806820F00300616808434A49886050
:10118000FFF77AFC074608E0FFF776FCC01B41F248
:101190008831884201D9032086E74348806800F0FF
:1011A0000C006168B0EB810FEED1207800F00200F6
:1011B000022820D1207800F00400042805D13A4804
:1011C000806840F4E06038498860207800F00800CA
:1011D000082807D13448806820F4605040F4E0606B
:1011E000314988603048806820F0F000A1680843E9
:1011F0002D49886008E0B8F1800F05D12A48806841
:1012000020F0F000284988602648006800F00F00B0
:10121000A84219D92348006820F00F00284321492B
:101220000860FFF729FC074608E0FFF725FCC01B14
:1012300041F28831884201D9032035E71948006816
:1012400000F00F00A842F0D1207800F0040004283C
:1012500007D11548806820F4E060E168084312492E
:101260008860207800F00800082808D10E488068BF
:1012700020F46050216940EAC1000B49886000F009
:1012800047F809498968C1F30311094A515C01F023
:101290001F01C8400749086007480068FFF70EFCB7
:1012A00002E70000002002400010024000B4C40425
:1012B000B62500082C040020240400200148006802
:1012C000704700002C04002000B5FFF7F7FF054928
:1012D0008968C1F30221044A515C01F01F01C84032
:1012E00000BD000000100240C625000800B5FFF751
:1012F000E5FF05498968C1F3C221044A515C01F048
:101300001F01C84000BD000000100240C6250008B3
:1013100070B5224DAD6805F00C05042D01D12048B3
:101320003AE01E4DAD6805F00C05082D01D11D48B1
:1013300032E01A4DAD6805F00C050C2D2BD1174D80
:10134000ED6805F00304154DED68C5F303156A1C3F
:10135000022C0CD0032C09D1124DB5FBF2F50F4E27
:10136000F668C6F3062605FB06F10AE000BF0C4D41
:10137000B5FBF2F5094EF668C6F3062605FB06F145
:1013800000BF00BF054DED68C5F341656D1C6B00E6
:10139000B1FBF3F000E0002070BD0000001002403F
:1013A0000024F40000366E012DE9F843044614B918
:1013B0000120BDE8F883207800F00100002865D006
:1013C000FC48806800F00C07FA48C06800F003068B
:1013D0000C2F01D1032E01D0082F0AD1F548006847
:1013E00000F40030002851D0606800284ED1012060
:1013F000DFE700BF6068B0F5803F06D1ED480068C8
:1014000040F48030EB4908601AE06068B0F5A02F26
:101410000BD1E848006840F48020E649086008469F
:10142000006840F4803008600AE0E248006820F478
:101430008030E04908600846006820F48020086099
:1014400000BF606888B1FFF717FB054606E0FFF7AD
:1014500013FB401B642801D90320AAE7D548006884
:1014600000F400300028F2D010E0FFF705FB05463D
:1014700006E0FFF701FB401B642801D9032098E731
:10148000CC48006800F400300028F2D1207800F049
:101490000200022860D1C748806800F00C07C548E8
:1014A000C06800F003060C2F01D1022E01D0042FDA
:1014B00018D1C048006800F4806018B1E06808B92D
:1014C000012076E7BB48406820F0FE40217C40EADE
:1014D0000160B8494860B8480068FFF7EFFA18B3F0
:1014E000012066E7E06800B3B248006840F480700D
:1014F000B0490860FFF7C0FA054606E0FFF7BCFAFE
:10150000401B022801D9032053E7AA48006800F4D1
:1015100080600028F2D0A748406820F0FE40217C7F
:1015200040EA0160A349486016E0A248006820F440
:101530008070A0490860FFF79FFA054606E0FFF7B4
:101540009BFA401B022801D9032032E79948006822
:1015500000F480600028F2D1207800F0080008280C
:1015600036D16069D0B193489430006840F00100F2
:101570009049C1F89400FFF77FFA054606E0FFF7AF
:101580007BFA401B022801D9032012E789489430D6
:10159000006800F002000028F1D019E0854894307E
:1015A000006820F001008349C1F89400FFF764FA55
:1015B000054606E0FFF760FA401B022801D9032028
:1015C000F7E67C489430006800F002000028F1D172
:1015D000207800F00400042872D14FF0000875480C
:1015E000806D012121EA107078B100BF7148806DD3
:1015F00040F080506F4988650846806D00F080504B
:10160000009000BF00BF4FF001086C48006800F474
:101610008070B0B96948006840F48070674908601C
:10162000FFF72AFA054606E0FFF726FA401B0228D4
:1016300001D90320BDE66148006800F480700028ED
:10164000F2D000BFA068012808D15A489030006845
:1016500040F001005749C1F8900021E0A06805283A
:101660000FD154489030006840F004005149C1F84F
:1016700090000846D0F8900040F00100C1F89000BA
:101680000EE04C489030006820F001004949C1F854
:1016900090000846D0F8900020F00400C1F89000B7
:1016A00000BFA068A8B1FFF7E7F9054609E0FFF71A
:1016B000E3F9401B41F28831884202D9032078E6E1
:1016C00025E03C489030006800F002000028EED091
:1016D00013E0FFF7D1F9054608E0FFF7CDF9401B0D
:1016E00041F28831884201D9032062E631489030C6
:1016F000006800F002000028EFD1B8F1010F05D119
:101700002C48806D20F080502A49886500BF2078E1
:1017100000F02000202836D1A069D0B125489830AB
:10172000006840F001002349C1F89800FFF7A4F9D0
:10173000054606E0FFF7A0F9401B022801D9032067
:1017400037E61C489830006800F002000028F1D00D
:1017500019E018489830006820F001001549C1F8D8
:101760009800FFF789F9054606E0FFF785F9401B69
:10177000022801D903201CE60E489830006800F0CA
:1017800002000028F1D1E069002860D00948806893
:1017900000F00C000C287AD0E069022858D10548E6
:1017A000006820F0807003490860FFF765F905467E
:1017B0000DE00000001002402404002000700040F2
:1017C000FFF75AF9401B022801D90320F1E54A48E6
:1017D000006800F000700028F2D1D4E90810401E23
:1017E00041EA0011A06A41EA0021208E0122C2EBE9
:1017F000500041EA40513420005DC2EB500041EA04
:1018000040612C20005D41EAC0603B49C9683B4A09
:10181000114008433849C8600846006840F08070AD
:1018200008600846C06840F08070C860FFF724F97F
:10183000054606E0FFF720F9401B022801D90320E6
:10184000B7E52D48006800F000700028F2D051E0A4
:101850002948006820F0807027490860FFF70CF9DC
:10186000054606E0FFF708F9401B022801D90320CE
:101870009FE52148006800F000700028F2D11E4862
:10188000C0681F4908401C49C86033E0FFE7E069B1
:10189000012800D18DE51848C66806F00301206ACA
:1018A000814225D106F0F001606A401EB1EB001FB5
:1018B0001ED106F4FE41A06AB1EB002F18D106F04C
:1018C00078412C20005DB1EBC06F11D106F4C0014E
:1018D000208E0122C2EB5000B1EB405F08D106F030
:1018E000C0613420005DC2EB5000B1EB406F01D00D
:1018F00001205EE500205CE5001002400C809F01A5
:10190000FCFFEEFE70B504462546681EB0F1807FF0
:1019100001D301200FE0681E4FF0E02148610F2144
:101920004FF0FF3000F006FE00204FF0E02188610C
:1019300007200861002070BD014600BF91F88400B7
:10194000012801D102207047012081F8840000BFE6
:101950002420C1F88800086802680868006820F040
:1019600001000B68186022F00052002048660868E9
:1019700002602020C1F8880000BF002081F88400A8
:1019800000BF00BFDFE770B504460D4600BF94F806
:101990008400012801D1022070BD012084F8840058
:1019A00000BF2420C4F8880020680668206800680A
:1019B00020F00100216808602068806820F06060E5
:1019C000284321688860204600F03EFA20680660BF
:1019D0002020C4F8880000BF002084F8840000BFE5
:1019E00000BFD9E770B504460D4600BF94F88400E7
:1019F000012801D1022070BD012084F8840000BFBD
:101A00002420C4F88800206806682068006820F058
:101A10000100216808602068806820F06040284349
:101A200021688860204600F00FFA206806602020B8
:101A3000C4F8880000BF002084F8840000BF00BF05
:101A4000D9E710B504460CB9012010BDA06900B15A
:101A500000E000BFD4F8880028B9002084F8840092
:101A6000204600F02BF82420C4F888002068006885
:101A700020F0010021680860A06A10B1204600F043
:101A80000FFA204600F034FB012800D1DDE7206882
:101A9000406820F49040216848602068806820F009
:101AA0002A00216888602068006840F001002168F1
:101AB0000860204600F070FAC7E7000010B598B043
:101AC0000446142113A8FEF77EFC442102A8FEF769
:101AD0007AFC1C492068884232D1202002900020E4
:101AE000079002A8FFF720F908B1FEF7CFFC00BF6E
:101AF0001548C06D40F001001349C8650846C06D27
:101B000000F00100019000BF00BF00BF0846C06C9C
:101B100040F00100C8640846C06C00F0010001906C
:101B200000BF00BF0C2013900220149000201590DD
:101B300016900C20179013A94FF09040FEF7B0FEBE
:101B400018B010BD008000400010024000BFFEE74A
:101B500000B58DB0302101A8FEF735FC10481149C1
:101B600008600846FEF7C6FD08B1FEF78FFC0220AC
:101B7000019000208DF808008DF809000390049072
:101B8000059006900120079000200890002201A9EE
:101B90000448FEF77FFC08B1FEF778FC0DB000BDED
:101BA000000800503004002000B587B0142102A8BE
:101BB000FEF709FC00BF2A48C06C40F00400284929
:101BC000C8640846C06C00F00400019000BF00BF6C
:101BD00000BF0846C06C40F02000C8640846C06CD6
:101BE00000F02000019000BF00BF00BF0846C06C9D
:101BF00040F00100C8640846C06C00F0010001908C
:101C000000BF00BF00BF0846C06C40F00200C864BF
:101C10000846C06C00F00200019000BF00BF002227
:101C200020214FF09040FEF721FF4FF4005002902A
:101C30004FF4881003900020049002A90948FEF791
:101C40002FFE202002900120039000200490059098
:101C500002A94FF09040FEF723FE07B000BD000040
:101C6000001002400008004810B5174817490860E6
:101C70004FF4E1304860002114488160C160016187
:101C80000C214161002181610162416200200F4904
:101C900088620846FFF7D5FE08B1FEF7F7FB002182
:101CA0000A48FFF79FFE08B1FEF7F0FB0021074846
:101CB000FFF769FE08B1FEF7E9FB0448FFF73CFEB9
:101CC00008B1FEF7E3FB10BD008000404404002093
:101CD00000BFFEE700BFFEE77047000070B5164D7D
:101CE000ED6805F00304144DED68C5F303156B1C96
:101CF000022C0CD0032C09D1104DB5FBF3F50E4E80
:101D0000F668C6F3062605FB06F10AE000BF0C4D97
:101D1000B5FBF3F5084EF668C6F3062605FB06F19B
:101D200000BF00BF044DED68C5F341656D1C6A003E
:101D3000B1FBF2F070BD00000010024000366E01F1
:101D40000024F4007047000010B5002430E01A4869
:101D500050F82430002211461848FEF717FD4FF4C2
:101D60007A70FEF789FD4FF47A70FEF785FD4FF427
:101D70007A70FEF781FD4FF47A70FEF77DFD4FF427
:101D80007A70FEF779FD4FF47A70FEF775FD4FF427
:101D90007A70FEF771FD4FF47A70FEF76DFD4FF427
:101DA0007A70FEF769FD4FF47A70FEF765FD641CEA
:101DB000032CCCD310BD0000000400203004002010
:101DC00010B5FEF75FFE10BD00B593B0382105A831
:101DD000FEF7F9FA14216846FEF7F5FA0020FEF73F
:101DE0000DFF02200590C0010890402009900220BC
:101DF0000C9002210D9104210E9155210F91022189
:101E000010911191129105A8FFF7CEFA08B1FEF7D3
:101E10003DFB0F20009003200190002002900390D2
:101E2000049004216846FFF737F908B1FEF72EFB4E
:101E300013B000BD0348006840F470000149086019
:101E40007047000088ED00E070B5456E2DB90125A2
:101E5000A0F86A50A0F868501CE008230824056820
:101E6000AD68C5F342610568AD686A0F0A4DAD5CA7
:101E700015FB04F5094EB65C95FBF6F5A0F86A5023
:101E8000054D6D5C15FB03F5044E765C95FBF6F590
:101E9000A0F8685070BD0000A6250008AE25000817
:101EA00090F8281001F00801082907D10168496855
:101EB00021F40041826B11430268516090F82810B0
:101EC00001F0010139B10168496821F40031C26AA9
:101ED00011430268516090F8281001F002010229B4
:101EE00007D10168496821F48031026B114302680F
:101EF000516090F8281001F00401042907D101680D
:101F0000496821F48021426B11430268516090F8C6
:101F1000281001F01001102907D10168896821F407
:101F20008051C26B11430268916090F8281001F053
:101F30002001202907D10168896821F40051026C31
:101F400011430268916090F8281001F04001402987
:101F500013D10168496821F48011426C1143026871
:101F60005160416CB1F5801F07D10168496821F4C7
:101F7000C001826C11430268516090F8281001F092
:101F80008001802907D10168496821F40021C26CD1
:101F9000114302685160704738B504460020C4F808
:101FA0009000FEF769FD05462068006800F0080013
:101FB000082821D16FF07E402B4600224FF40011FB
:101FC0000090204600F056FAB0B100BF00BF216873
:101FD00051E8001F21F08000226842E8000100293A
:101FE000F5D100BF2020C4F8880000BF002084F88D
:101FF000840000BF032038BD2068006800F00400A2
:10200000042830D16FF07E402B4600224FF480012F
:102010000090204600F02EFA28B300BF00BF2168D0
:1020200051E8001F21F49070226842E80001002965
:10203000F5D100BF00BF00BF2168083151E8001F83
:1020400021F001002168083141E80002002AF3D1A3
:1020500000BF2020C4F88C0000BF002084F884005A
:1020600000BF0320C7E72020C4F88800C4F88C0014
:102070000020E066206700BF84F8840000BF00BF36
:10208000B9E7000000BF00BF026852E8002F22F449
:102090009071036843E80012002AF5D100BF00BF29
:1020A00000BF0268083252E8002F104B02EA030119
:1020B0000268083242E80013002BF2D100BFC16E63
:1020C00001290CD100BF00BF026852E8002F22F0A6
:1020D0001001036843E80012002AF5D100BF202157
:1020E000C0F88C100021C16641677047FEFFFFEF0A
:1020F0002DE9FE4F044600200290D4492068884212
:1021000000D100E000BF2169A0680843616908436D
:10211000E16940EA010820680068CD49084040EACA
:102120000800216808602068406820F44050E16899
:10213000084321684860D4F81880C4492068884260
:1021400002D0206A40EA080820688068C149084037
:1021500040EA0800216888602068C06A20F00F000B
:10216000616A08432168C86200BFBB492068884291
:1021700016D1BA48006800F0030030B1012808D039
:10218000022804D0032808D105E0012507E0022534
:1021900005E0042503E0082501E0102500BF6FE0FD
:1021A000AF492068884216D1AC48006800F00C00A6
:1021B00030B1042808D0082804D00C2808D105E044
:1021C000002507E0022505E0042503E0082501E0DD
:1021D000102500BF54E0A3492068884216D19F48CB
:1021E000006800F0300030B1102808D0202804D05A
:1021F000302808D105E0002507E0022505E0042588
:1022000003E0082501E0102500BF39E09649206869
:10221000884216D19148006800F0C00030B14028D3
:1022200008D0802804D0C02808D105E0002507E0A8
:10223000022505E0042503E0082501E0102500BF84
:102240001EE082492068884219D18448006800F461
:10225000406048B1B0F5806F0AD0B0F5006F05D08E
:10226000B0F5406F08D105E0002507E0022505E044
:10227000042503E0082501E0102500BF00E010253B
:1022800000BF72492068884259D135B1022D08D06B
:10229000042D08D0082D0DD109E0FFF715F80646EA
:1022A0000CE0724E0AE0FFF733F8064606E04FF402
:1022B000004603E000260120029000BF00BF002E70
:1022C00010D06B49606A31F81000B6FBF0F9606815
:1022D00000EB4000484503D860680003484502D23F
:1022E00001200290A6E06249606A31F810C062469F
:1022F000002330461946FDF7EFFF4FF4807C0022A3
:10230000A0FB0C3B01FB0CB100FB02116068400814
:1023100018185141CDE90001D4F804C062460023E9
:10232000FDF7DAFF0746B7F5407F05D3B7F5801F05
:1023300002D22068C7607DE0012002907AE0E06967
:10234000B0F5004F3FD1092D17D2DFE805F00509A0
:102350000D160F1616161300FEF7B6FF064610E010
:10236000FEF7C4FF06460CE0404E0AE0FEF7D0FF41
:10237000064606E04FF4004603E0002601200290E6
:1023800000BF00BF86B33A49606A31F81000B6FB5F
:10239000F0F04000616800EB5100B0FBF1F7102F46
:1023A0000ED3B7F5803F0BD24FF6F07007EA000A64
:1023B000C7F342004AEA000A2068C0F80CA039E0DE
:1023C0000120029036E0092D18D2DFE805F005095A
:1023D0000E17101717171400FEF776FF064611E0C8
:1023E000FEF784FF06460DE024E0204E0AE0FEF7EB
:1023F0008FFF064606E04FF4004603E0002601206A
:10240000029000BF00BFAEB11949606A31F81000F8
:10241000B6FBF0F0616800EB5100B0FBF1F7102F54
:1024200006D3B7F5803F03D2B8B22168C86001E097
:10243000012002900120A4F86A00A4F8680000209E
:102440006067A0670298BDE8FE8F00000080004032
:10245000F369FFCFFFF4FF110038014088100240FC
:102460000044004000480040004C00400024F400BC
:102470008E2500082DE9F04104460D461746984682
:10248000069E41E0701C00283ED0FEF7F5FAA0EB56
:102490000800B04200D816B90320BDE8F0812068DA
:1024A000006800F0040070B3802D2DD0402D2BD09B
:1024B0002068C069C0F3C00078B1082021680862B4
:1024C0002046FFF7DFFD0820C4F8900000BF002081
:1024D00084F8840000BF0120DFE72068C069C0F3F2
:1024E000C02080B14FF40060216808622046FFF7E9
:1024F000C9FD2020C4F8900000BF002084F88400AB
:1025000000BF0320C9E7FFE72068C0692840A84250
:1025100001D1012000E00020B842B3D00020BCE788
:1025200000BFFEE702480068C0F3022070470000C9
:102530000CED00E010B5002804DB0A07130E054A75
:10254000135406E00A07140E034A00F00F031B1F82
:10255000D45410BD00E400E018ED00E0FEF79EFA50
:10256000FFF732FCFFF720FBFFF7F2FAFFF77CFBE7
:1025700000210348FEF72EF901E0FFF7E5FBFCE739
:10258000300400204FF04070E1EE100A7047010067
:1025900002000400060008000A000C0010002000E1
:1025A0004000800000010101010307010000080450
:1025B0000204080101010000000000000000010207
:1025C00003040607080900000000010203040000DC
:1025D000F02500080000002030040000140200086C
:1025E000D42800083004002008070000500200082A
:1025F00033000833320833650833970833CA083389
:10260000FC08332E09335F0933910933C20933F4CF
:102610000933240A33550A33850A33B50A33E40AE9
:1026200033130B33410B336F0B339C0B33C90B3319
:10263000F50B33210C334C0C33760C339F0C33C821
:102640000C33F00C33170D333E0D33640D33890D0D
:1026500033AD0D33D00D33F20D33130E33340E334F
:10266000530E33710E338F0E33AB0E33C70E33E17F
:102670000E33FA0E33120F33290F333F0F33540F3B
:1026800033680F337A0F338C0F339C0F33AB0F3318
:10269000B90F33C50F33D10F33DB0F33E40F33EBF7
:1026A0000F33F20F33F70F33FB0F33FE0F33FF0FF0
:1026B00033FF0F33FF0F33FD0F33F90F33F50F33B4
:1026C000EF0F33E80F33DF0F33D60F33CB0F33BFAA
:1026D0000F33B20F33A30F33940F33830F33710FC4
:1026E000335E0F334A0F33340F331E0F33060F336D
:1026F000EE0E33D40E33B90E339D0E33800E33629B
:102700000E33430E33240E33030E33E10D33BE0D6F
:10271000339B0D33760D33510D332B0D33040D33B5
:10272000DC0C33B40C338B0C33610C33360C330BB1
:102730000C33DF0B33B30B33860B33580B332A0BBD
:1027400033FB0A33CC0A339D0A336D0A333D0A3317
:102750000C0A33DB0933AA093378093347093315E7
:102760000933E30833B008337E08334C08331908C3
:1027700033E70733B407338207335007331D07337A
:10278000EB0633B90633880633560633250633F491
:102790000533C3053393053363053334053305052A
:1027A00033D60433A804337A04334D04332104337D
:1027B000F50333CA03339F03337503334C033324C8
:1027C0000333FC0233D50233AF02338A023365028E
:1027D000334202331F0233FD0133DC0133BD0133C9
:1027E0009E01338001336301334701332C013312DF
:1027F0000142FA42E242CC42B642A2428F427D42BC
:102800006C425D424E42414235422A4221421842C8
:1028100011420B42074203C20142024205420942F1
:102820000E4215421C4225422F423B42474255422E
:102830006442744286429842AC42C142D742EE336F
:102840000601331F01333901335501337101338FD1
:102850000133AD0133CC0133ED01330E02333002CD
:10286000335302337702339C0233C20233E902331B
:102870001003333803336103338A0333B40333DF84
:1028800003330B0433370433640433910433BF043C
:1028900033ED04331C05334B05337B0533AB053374
:1028A000DC05330C06333E06336F0633A10633D204
:1028B00006330407333607336907339B0743CE07D4
:1028C000320833D90433B209031B8B0E4210520174
:0428D0001424F400D8
:04000005080001D915
:00000001FF
